:020000040000FA
:1000000015EF00F0FFFFFFFF4C8299ED05F0FFFFB9
:10001000FFFFFFFFFFFFFFFF4C80E0CF29F00CEF59
:1000200008F029C0E0FF4C90100058EF05F0700E6A
:10003000D36E400E9B6EF00E956E836EF19E9368AC
:10004000816898DA64EC05F04B6E81BA04D083685D
:1000500081BA206A07D04B0403E0020E4B1802E17C
:10006000010E206E9568946AFD0E936EFE0E986EDA
:100070008192C00E2A6E0F0E2B6E2C6A2D6A64ECD4
:1000800005F04B6E030E4B1818E0C00E2A6E0F0ED3
:100090002B6E2C6A2D6A48EC05F0030E2B6EE80ED1
:1000A0002A6E6FEC05F0C00E2A6E0F0E2B6E2C6AB6
:1000B0002D6A030E2E6E23EC05F0200407E19368F1
:1000C00094689568986800EF08F0F9D7100EAF6E45
:1000D0007E96AC84AC98AC9CAB9C9F9A9F981E0E6D
:1000E000C86E280EC66E2CDA020EE3EC03F0AB8E5F
:1000F0007AEC05F0C26A0F0EC16EA10EC06ECF0E73
:10010000956E966A030E976ECB0E946EB59C070E95
:10011000B46E36EC05F03EEC04F02F6A0A0E2E6E3B
:1001200031EC03F0000E17EC04F01C0E856E010E8E
:10013000216E020EA2EC04F09EAA36D033DAAECFC6
:10014000DFFF9E9A27D02EDAAB0EDE1802E1252AB9
:100150002BD0256A29D0AB0E011802E1010E276EC3
:10016000256A010E246E150E246401D01DD0245082
:10017000010FD96EDA6A2450010FE16EE26AE7508E
:10018000376E2450375CDF6E242AEDD7150E2564B8
:10019000DED7DFD72550376E386A3850F7E1375051
:1001A000D2E0150AD8E0F2D7270401E0BCD18AECEE
:1001B00005F03F6A406A0250050F416E010EE7D913
:1001C0000AD046507EEC04F03F26000E4022462A1C
:1001D00047224822492241C037F0386A396A3A6AD0
:1001E0003750465C38504758395048583A5049586B
:1001F000E8E33FC028F0286C4150010FD96EDA6A5D
:100200002850DE1801E172D185D1210408E198D986
:100210000A0EE3EC03F00F0ED7EC02F082D104508B
:1002200003C037F0386A396A3A6A39C03AF038C0E0
:1002300039F037C038F0376A37243B6E000E38206B
:100240003C6E000E39203D6E000E3A203E6E185076
:100250003B241C6E19503C201D6E1A503D201E6E12
:100260001B503E201F6E1F501E1003E1100E1D5C20
:1002700009E31F5007E1210E1C5C7F0E1D58010E83
:100280001E5816E31F501E100BE1100E1D5C08E2F5
:1002900060D9020EAFEC03F0140ED7EC02F041D19E
:1002A00058D9030EAFEC03F0150ED7EC02F039D19C
:1002B0001CC037F03F0E37160AE11CC02AF01DC0E3
:1002C0002BF01EC02CF01FC02DF048EC05F01CC018
:1002D0002AF01DC02BF01EC02CF01FC02DF0050E03
:1002E0002E6E41C02FF063EC04F0000E1C242A6E29
:1002F000F00E1D202B6EFF0E1E202C6EFF0E1F20F9
:100300002D6ED70E2E6E050E2F6E306A316A74EC8C
:1003100003F02A50226E225094EC05F0030E8FEC6D
:1003200005F0FF0EF6EC04F04A82070E2326246A3D
:10033000426A436A446A456A5AD042501C242A6E73
:1003400043501D202B6E44501E202C6E45501F2004
:100350002D6E64EC05F01BD94250060FD96EDA6A97
:10036000DF50376E19D94650381809E1475039180F
:1003700006E148503A1803E149503B1803E0010EEA
:10038000246E30D023504624376E000E4720386E3E
:10039000000E4820396E000E49203A6E4250372434
:1003A000466E43503820476E44503920486E4550C1
:1003B0003A20496E810E461222504224376E000EBA
:1003C0004320386E000E4420396E000E45203A6EF0
:1003D0003A503910381006E13E0E375C03E24650C1
:1003E000F6EC04F0422A000E43224422452241C08A
:1003F00037F0FB0E3726D0D83850425C395043587E
:100400003A5044583B50455898E3245005E18284C3
:100410000A0ED7EC02F085D093D8040EE3EC03F07B
:100420000D0ED7EC02F07DD0C00E2A6E7F0E2B6E23
:10043000010E2C6E2D6A48EC05F094D82E6E23EC3C
:1004400005F04668476A486A496A94D864EC05F042
:100450009ED846044710481049100AE14A924A9033
:100460006FD8050EE3EC03F00B0ED7EC02F059D079
:1004700067D8040EE3EC03F0160ED7EC02F051D06F
:100480005FD8060EE3EC03F0000E17EC04F0030E49
:1004900083EC04F077D8216A110ED7EC02F041D03A
:1004A0004FD8070EE3EC03F0000E17EC04F0030E38
:1004B00083EC04F067D8100ED7EC02F032D00704BA
:1004C00008E1000E186E196E010E1A6E000E1B6EFA
:1004D00001D058D80E0ED7EC02F023D031D8090E37
:1004E000E3EC03F0120ED7EC02F01BD00550376E90
:1004F000386A3850F3E1375001E187D6010A94E0B9
:10050000030ABEE0010ACCE0070AD9E0010A01E1D2
:100510008ED5E4D715D80C0EE3EC03F00C0ED7EC17
:1005200002F07AEC05F04AB24AB006D61BD82E6A21
:1005300023EC05F04AA202D04A80FED54A90FCD5B1
:10054000130E2F6E880E2E6E050E316EDC0E306E81
:10055000DC0C130E2F6E880E2E6E050E316EDC0E27
:10056000306EDC0CC00E2A6E7F0E2B6E010E2C6ED0
:100570002D6A010CC00E2A6E7F0E2B6E010E2C6EA2
:100580002D6A010C186A196A1A6A1B6A1200466EF3
:10059000476A486A496A120037C038F0396A3A6ACD
:1005A0003B6A12002550010FD96EDA6A12002F6ED5
:1005B000AB0E0FEC05F0000E0FEC05F0000E0FEC8B
:1005C00005F0000E0FEC05F02F500FEC05F027D0D2
:1005D000F60E0FEF05F0F50E0FEF05F0F40E0FEF2E
:1005E00005F0F30E0FEF05F0F20E0FEF05F0F10E30
:1005F0000FEF05F0F00E0FEF05F0EF0E0FEF05F027
:10060000EE0E0FEF05F0ED0E0FEF05F0EC0E0FEF15
:1006100005F0EB0E0FEF05F0EA0E0FEF05F02F508F
:100620002D6E2E6A2E50D8A412002D500A0AD0E04A
:10063000010AD1E0070AD2E0010AD3E0030AD4E0BC
:10064000010AD5E01F0AD6E0010AD7E0030AD8E084
:10065000010AD9E0070ADAE0010ADBE0030ADCE07C
:1006600012002E503F08306E2618D8B412003050B9
:10067000265C1BE2838834D86FEC05F0838A30D87F
:100680006FEC05F0839A2CD86FEC05F009D08398B5
:1006900027D86FEC05F0838823D86FEC05F0262A65
:1006A0003050265CF4E3838A1200839819D86FECEB
:1006B00005F0839A15D86FEC05F009D0838810D81F
:1006C0006FEC05F083980CD86FEC05F026062650E9
:1006D000305CF4E3838A04D86FEC05F08388120061
:1006E0002B6A640E2A6E640C326A336A346A356A85
:1006F0002E502F103010311029E0010E366E06D02A
:10070000D8902E362F3630363136362A31AEF8D7DD
:10071000D89032363336343635362E502A5C2F5048
:100720002B5830502C5831502D5809E32E502A5E4A
:100730002F502B5A30502C5A31502D5A3280D8908D
:10074000313230322F322E32362EE2D732C02AF0FA
:1007500033C02BF034C02CF035C02DF01200326EB7
:10076000346A04D026D86FEC05F0342A3450FAE00D
:10077000336A13D0346A04D021D86FEC05F0342AE0
:100780003450FAE08182346A04D018D86FEC05F056
:10079000342A3450FAE08192332A3250335CEAE34F
:1007A000346A04D006D86FEC05F0342A3450FAE0ED
:1007B000120030C02AF031C02BF012002EC02AF0F7
:1007C0002FC02BF01200326E346A04D026D86FECA2
:1007D00005F0342A3450FAE0336A13D0346A04D076
:1007E00021D86FEC05F0342A3450FAE08284346A60
:1007F00004D018D86FEC05F0342A3450FAE0829413
:10080000332A3250335CEAE3346A04D006D86FEC02
:1008100005F0342A3450FAE0120030C02AF031C01A
:100820002BF012002EC02AF02FC02BF01200336ED6
:1008300085501C09856E33C035F00FD035508FECD4
:1008400005F0000E94EC05F0346A000EF6EC04F0AE
:10085000342A3F0E3464F9D7352A070E3564EED7B3
:10086000000E8FEC05F0000E94EC05F002D8C1EFFD
:1008700004F0010E2D6E2E6E2F6E000C839870EC1E
:1008800003F06FEC05F0839A70EC03F06FEC05F069
:100890002E6A838870EC03F06FEC05F0839870EC9F
:1008A00003F06FEC05F02E2A630E2E64F2D7838AD4
:1008B00070EC03F06FEC05F0838870EC03F06FECE4
:1008C00005F0266A12002AC0F6FF2BC0F7FF2CC0E5
:1008D000F8FF050E306E05D0305010D8F56E0D00C3
:1008E000302A2F50305CF8E30A00A68EA69CA6841E
:1008F000550EA76EAA0EA76EA682AA0C010FD96E7E
:10090000DA6ADF5012002E6E080E856E2E508FECC4
:1009100005F0000E94EC05F0FF0EF6EC04F03F0E2F
:1009200094EC05F0FF0EF6EC04F0010E94EC05F0EB
:10093000010E2F6E810EF6EC04F02F2A3E0E2F646E
:10094000F9D73E0C2F6E080E856E040E8FEC05F065
:10095000000E94EC05F02F50F6EC04F03F0E94ECF2
:1009600005F02F50F6EC04F0010E94EC05F0010EAA
:100970002E6E2F50F6EC04F02E2A3E0E2E64F9D780
:100980003E0C306E32C031F02DB002D0859401D0D3
:10099000858431C032F02EB002D0859601D0858694
:1009A00032C031F02FB002D0859801D0858831C097
:1009B00032F03050C00FDDEF04F02C6E010E82ECEF
:1009C00005F0859E010E82EC05F0859C010E82ECFF
:1009D00005F02CC084FF010E82EC05F0858A010E23
:1009E00082EC05F0859A010E82EF05F02C6E010E67
:1009F00082EC05F0859E010E82EC05F0858C010EDF
:100A000082EC05F02CC084FF010E82EC05F0858A93
:100A1000010E82EC05F0859A010E82EF05F02C6E36
:100A2000000E2B6E010E2A6E2CC0ADFF08D02A4A94
:100A30002B2A2B5007E1970E2A5C01E31200ACB27F
:100A40001200F5D712002AC0F6FF2BC0F7FF2CC00A
:100A5000F8FF2EC0F5FF0D000A00A68EA69CA68406
:100A6000550EA76EAA0EA76EA682AA0C856A846A86
:100A70003D0E856E9EEC05F039EC04F0C1EC04F0FF
:100A8000000E94EC05F0000E8FEC05F0869012003D
:100A90002AC0F6FF2BC0F7FF2CC0F8FFA68EA69C3D
:100AA000A684A688550EA76EAA0EA76EA682AA0CCB
:100AB0004A6A00EE01F0280EEE6AE806FDE14C906D
:100AC0004C92000117EF00F02AC0F6FF2BC0F7FF91
:100AD0002CC0F8FF0800F5CF2EF02E5012002C6A23
:100AE0002D6A02D02C4A2D2A2A502C5C2B502D58CE
:100AF000F9E31200276A016A256A829AAC9AAB88E8
:100B00009E9A12002A6E2B6A01D02B2A2A502B5C47
:100B1000FCE31200828AAC8AAB989E9A12002D6E7A
:100B20002D50B80FDDEF04F02D6E2D50400FDDEF8E
:100B300004F0060004EF08F04C9211003F0EDDEFC8
:100B400004F0FFFFFFFFFFFFFFFFFFFFFFFFFFFFBF
:100B5000FFFFFFFFFFFFFFFFFFFFFFFFFFFFFFFFA5
:100B6000FFFFFFFFFFFFFFFFFFFFFFFFFFFFFFFF95
:100B7000FFFFFFFFFFFFFFFFFFFFFFFFFFFFFFFF85
:100B8000FFFFFFFFFFFFFFFFFFFFFFFFFFFFFFFF75
:100FC00003FFFFFFFFFFFFFFFFFFFFFFFFFFFFFF2D
:100FD000FFFFFFFFFFFFFFFFFFFFFFFFFFFFFFFF21
:100FE000FFFFFFFFFFFFFFFFFFFFFFFFFFFFFFFF11
:100FF000FFFFFFFFFFFFFFFFFFFFFFFFFFFFFFFF01
:1010000007EF08F0FF00FF00518237ED81F078EF25
:10101000A4F00030FFFFE7030000000008FF970086
:10102000E70335FFFFE703000014000138E70398EA
:101030000035FFFFE70300000A000138E7039900CD
:1010400035FFFF3200010002000138E7039B003545
:10105000FFFF640005001400023BE7039C0035FF1E
:10106000FFE703000002000138B0009E0035FFFFDB
:10107000E70301000A000143B000A00035FF040AA5
:1010800000000000000138E703A10035FFFF640005
:1010900001003200023BA200D90035FFFF640001CD
:1010A000000A00023BA400A50035FFFFFA00010082
:1010B0001400023BA600A70035FFFF640001000AF0
:1010C00000023BA800A90035FFFF0F27050007001D
:1010D000023BAA00AB003504FFE7030300E703026D
:1010E0003BA800AC0035FFFF0F2703001400023BB4
:1010F000B000AD0020FFFFE703000000000138AEA4
:1011000000AF0035FFFFB4001E0096000140B100A3
:10111000680035FFFFB4001E0096000140B2006871
:101120000036FF04630000000F000238B400B30073
:1011300036FFFFF4010F00AA00013FB500B6003EE4
:10114000FFFF02000000010005FFB700B80036FFF6
:10115000FFE70301008C00023FB500B90035FF0432
:10116000E703000003000238A800640036030459B6
:101170000200005902023BBB00BC0036FFFF6400C6
:1011800001006400013EBD00BE0036FFFF3F0000CD
:10119000001000013EBD00BF0035FFFFE703010066
:1011A00005000138E703C00000FFFF2C010000002C
:1011B0000009FFC100C20020FFFFE803000000009B
:1011C0000241C300C40020FFFF72010000000002C2
:1011D0003DC300C50020FFFFFF000000000009FF25
:1011E000C600C20035FFFFB4001E00B4000140C7B6
:1011F00000680035FF04640000000000013EC700E5
:10120000C90000FFFFFF000000000009FFCA00CB7B
:101210000035030401000000000001FFA800CC001D
:1012200035FF0307000000000011FFCE00E7033583
:10123000FFFFE8030A003200023BB700D00000FFC6
:10124000FF0F2700000A000DFFB700D10000FFFFCD
:10125000FF000000000007FFD200E70335FFFFE7B3
:10126000033200580201407600D40035FF046400C8
:1012700000001E00013E7600D50035FF046300002B
:1012800000010001FFD600D70035FFFF320001004A
:101290000500023B7600A5003EFFFF0100000001B3
:1012A000000EFFBD00D80035FF04640000000F00F1
:1012B000023BDA00D90035FFFFB4001E00A0000198
:1012C00040DA00680035FFFFB4001E0096000140C0
:1012D000E500680035FF04640000000F00023BB227
:1012E00000D9002600010200000000001101DC000E
:1012F000DD0020FFFF0000000000001045DE00DFE1
:101300000020FFFF0000000000001045E000DF00AB
:1013100020FFFF0000000000001045DE00E100207B
:10132000FFFF0000000000001045E000E10020FF8A
:10133000FFFF00000000001043E200DD0020FFFF7F
:10134000FF00000000001043E300DD0035FF0464EF
:101350000000000F00023BB100D90035FF04580225
:1013600000000000023BE500A50035FF046400001A
:10137000000A00013EE600D50000FF00FF00FF006C
:10138000FF000CFFE700E80000FF01FF00FF00FF87
:10139000000CFFE900EA0020FFFF26020000000029
:1013A000023DC300EB003504FF8403320058020104
:1013B000406500D40020FFFFFF000000780301FF1C
:1013C000ED00E70336FFFFE70301005000013FEEA9
:1013D00000EF0035FFFFC80005002800023BF000C9
:1013E000F10000FFFF00000000000007FFDC00E745
:1013F0000300FF040000000000000CFFF200F300F7
:101400003504FFDF030A00DF03023B0501A50020CE
:10141000FFFFC80000000000023CC300F50036FFDB
:10142000FF320001000100023BF600F70031FFFF30
:1014300064000000120008FFF800F90031FFFF64AB
:10144000000000080008FFFA00FB0031FFFF640005
:1014500000001E0008FFFC00F90035FFFF640001DA
:10146000001400023BC700FD0035FFFFE70300004A
:101470001400023BC700FE0000FF02FF00FF00FF58
:10148000000CFFFF00000136FFFF06000100030013
:101490000143B70001013503040100000001000110
:1014A000FF0201E70336FFFF320001000100023BAB
:1014B000F600030135FFFF0F270A002C01023B0451
:1014C00001A50035030401000000000001FF050133
:1014D000060120FFFF00000000000010430701E7A5
:1014E0000320FFFF00000000000010430801E70395
:1014F00000FF03FF00FF00FF000CFF09010A0100CD
:10150000FF06FF00FF00FF000CFF0B010C0136007F
:101510000E03000000030011010D010E0136FF044F
:10152000630000001E0001430D010F0136FF045847
:10153000020A003200023B0D01100100FFFF000013
:101540000000000000FFE703E70335FFFF64000130
:10155000003200023BEC00D90035FFFF64000100BF
:101560003200013EB0001401360006010000000008
:10157000001101B700150100FFFF0000000000008E
:1015800003FF1601170100FFFF0000000000000329
:10159000FF1801170135FFFFE703320090010140FA
:1015A000E600D4003504FFE7030100E7030138B08B
:1015B000001A0100FFFF00000000000009FFDC002E
:1015C0001B0135FF04640000006400013E1C01D5CE
:1015D0000035FF04580200000000023B05011D0118
:1015E0003EFFFF0F270000401F01FF1E011F0136B5
:1015F000FF040A00000001000143F600200135FF4E
:1016000004E70301000100023BA8001D0135FFFFB4
:101610006300010001000238EC00210135FF04E7FE
:10162000030000000002380500640035FFFF64007D
:1016300000001E00013E1101220135FF04E70300F6
:101640000000000238EC00230135FF0463000000B5
:101650000F000238DA003A013610100200000001D3
:101660000011012401250120FFFFE7030000000015
:101670000140C300260120FFFFC800000000000158
:1016800040C300680020FFFF640000000000013E2E
:10169000C300270120FFFF630000000000013EC3DC
:1016A00000280134FFFF630000000000013EE0005D
:1016B00029013EFFFFC8000100080001FF1E012AAA
:1016C0000134FF0401000000000012FF2B012C0177
:1016D00000FFFFE80300000000023E2D017D000036
:1016E000FFFF00000000000000FF2F01300100FF9D
:1016F000050000000000000CFF3101320120FFFF57
:10170000E8030000000001FFDC00330135FFFF6447
:101710000000000A00013EE000340135FFFF6400D4
:1017200000001000013E350134013526250100007E
:1017300000010001FFE000360135FF050800000050
:10174000070011FF3801370135FF050800000008C8
:101750000011FF380139013EFFFF050000000100C4
:10176000011D8C009F0000FFFF0000000000000032
:10177000FFE703E70300FFFFFF000000000007FF93
:101780003B01E7033510070300000003001101BD12
:10179000003E0135FFFF320001000700023BE00080
:1017A0003F0135FFFFB4001E0032000140EC00A2F3
:1017B0000000FFFF00000000000009FF410142019E
:1017C00020FFFFFA0000000000003EE703E70326C9
:1017D000FFFF640000006400013E3501430136FF55
:1017E00004140001000800023B4401A50036FF0478
:1017F00014000000030001424401BA003500080251
:1018000000000002001101A800450100FFFFB40024
:101810001E00320015407F00E70300FF09000000B2
:101820000000000CFF5A015B01361918010000008E
:10183000010001000D000E0036FFFF6300010001F2
:101840000002424801490135000202000000010087
:101850001101B7004A013500040300000001001126
:10186000014801630000FF070000000000000CFFBA
:101870004C014D0120FFFF64000000000001FFE764
:1018800003E70335FFFF630000000000013EE500B1
:101890004E0135FFFF630000000000013EB2004E24
:1018A0000100FF000000000000000BFF500151018B
:1018B00000FFFF0000000000000FFF520130010098
:1018C000FF0000000000000004FF5301540126FF48
:1018D000FF06000100010001FF1E01550126160F41
:1018E00006000100010011011E01560136FFFF64D0
:1018F0000000001E00013EF600D50020FFFF0000A2
:101900000000000000FFE703E70334FFFFFF0000D3
:1019100000000006FFE703E70334FFFFFF000000BD
:10192000000006FFE703E70334FFFFFF00000000AD
:101930000006FFE703E70330FFFFFF0000000000A1
:1019400006FFE703E70330FFFFFF0000000000068B
:10195000FFE703E70330FFFFFF000000000006FF82
:10196000E703E70335FFFFE8030A003C00013E6898
:1019700000620135030401000000000001FF5E0168
:10198000610135030401000000010001FF5E0160F8
:101990000135030401000000010001FF5E015F0149
:1019A00036FFFF640001000A0001431E01360000FB
:1019B000FFFF00000000000000FFE703E703360020
:1019C0000C03000000000011018C0057013EFFFFD6
:1019D000060001000100011D8C00580104FFFF07F3
:1019E000000000000014FF810060003503040100C6
:1019F0000000000001FF7C00650000FF08FF000000
:101A00000000000CFF14001B003EFFFFE703010075
:101A10002C01013B8C001C0000FFFFE703000000CD
:101A2000000AFF1A00E7033405000300000000006D
:101A300011011E01150000FFFFFF00000000001350
:101A4000FF1600E70336100D020000000000110130
:101A50001E013C013EFFFF2B0102001400023B1E51
:101A60000117003E001203000000000011008C006E
:101A7000660036FFFF8B0032006400013E680059AB
:101A8000013504FF640000005000013E3D012501C6
:101A900000FFFF00000000000000FF5C015D013559
:101AA000FFFF1E000A000D0002FF48010B0035FF7A
:101AB000FF320000001900013E4801D50035FFFF4C
:101AC0001E000A00140002FF48010C0035FFFF321F
:101AD0000001000A00023B4801A50000FF010000D0
:101AE000000000000BFF4F01E40004FF04010000B0
:101AF00000000012FF2E012C0100FF0A010000006F
:101B000000000CFF63016401994F994F914FA14F61
:101B1000C14FB94F484B534B5E4B3D4B5A46B849AA
:101B2000244324431E2DDC2C362C582C792C9A2C43
:101B3000BB2C3F2D393141324333AA31DF49A44810
:101B40000A33AD34653EEF3C644E644E025102519F
:101B500070507050CB4DE64D563C0735123CF53475
:101B6000FD2CFD2C1150115059396B386A397C38D5
:101B7000F230F2301F401F40694B4D44533FA83FA5
:101B8000C841003D773D863F013C023B113D463B4D
:101B9000BE3AAD3A2738F3389A3C2837103E643FB6
:101BA000683B683BA6411D42223D443D973F553D61
:101BB00072427242BB3DBB3DF03BDE3CD14FD14F48
:101BC000A5420B43E942E9429442FA42D842D84244
:101BD000C742C742B642B642993D993D83428342CD
:101BE000592B292B61426142C137C137C038143AA1
:101BF000F5366C370F3FF2395A385A387D377D3712
:101C0000693A7A3A29362936B136B136363A363A11
:101C1000243B5B37E139D336203F033A9E38D23735
:101C200019352C432A352C433B352C434C352C435A
:101C30005D352C436E352C4390352C43A1352C4318
:101C4000E5352C436D362C4306372C438E372C4319
:101C500005382C43E2382C439C3A2C4350422C4309
:101C60006D4E6D4E624754473937DB48F14E094F90
:101C7000194F194F294F294FD94ED94E014F014FB6
:101C8000B94EB94E114F214FD14E314FA14EA14EF9
:101C90001D442E42A02E43306731D9307F3C43494A
:101CA000602D232E56322231994DD6450C297A29A2
:101CB000F949CE329D3948399F37BF397B397B3955
:101CC000C4470A48D0393739AE39433E8B3A2639B2
:101CD000C94FC94F9A476C482D43ED433D435D437F
:101CE0007D439D43CD432D450D446D430751075121
:101CF0007D448D44A5467945DD44213E2D4402496D
:101D0000B741B7410E47E848793B793B0C510C513C
:101D1000FB410C42CB3EA93EBA3E983E7E47184856
:101D2000FC475048E24B3A36B34CBD4CC74CC74C0D
:101D30006241AA3D543ECC3DE54CD14AB42BB42B74
:101D4000CC3BCC3BEE3BEE3BFF3BFF3B084E084E13
:101D5000644C644C914ED44D994EDD4DB14FF84DCD
:101D60003F5038502E4E5B4E3D49A74A954B395156
:101D7000B94AD247F94C954A254EC14B8449894A04
:101D8000494F014EB62B882B4C45E1466946353B01
:101D9000B133C333F84BF84B194CAD4A454F544A55
:101DA00085509A50CC4B7D4A7C2DC549814F894F37
:101DB00085509A5031501B51394F674D8C474D4AD1
:101DC000A6459745294A6B3D16517750034D0A4E5B
:101DD000FD3FBD44DC2EE32D253AD435D950AF501C
:101DE000354AB446354D793F7B4DF6326A455B4501
:101DF000034C244C195019505450B64B19501950DB
:101E00000D4D2F4C524E494E3649E0470F462E425B
:101E10003D441C479E49C54A0E4C654A374E594FB2
:101E2000F437E436E94AF1454650744B812EA22D31
:101E3000DD430D45FD43AD43892FC02F343C0E409B
:101E4000914977492C432C439232F52FBD3BCE3B31
:101E5000B037AF389D449D44E73353348B322E481E
:101E6000E63F503C46473F4DC750134E1D349B3410
:101E7000E3378F367C2DBB50414AAB4B1C431C4390
:101E80007E50614F0F492A4758485848CD50CD5091
:101E900051415141EC3FEC3F634063403A4C382E96
:101EA000194CAD4AFE3EDF3B423FBC3C873E763E8E
:101EB000C94096408F4D454CFD441E4687467846A6
:101EC00011517B2E8A4BC150DB3F453C1D4A1C4EB5
:101ED000673C573BEB40FC401C498845D74B76415B
:101EE000854D514FA04B5D49C94EB14EF14EA94EA3
:101EF000C14EE94ED14E314FF94EE14E414F4D4A60
:101F00009431F92E313F753FDA40B840C030622E2F
:101F1000B5457047174D714A7A48114A783C893C5B
:101F2000BE2E812D42484248D246C346F13A133B69
:101F30007440A740DC3EED3E30404140FD50823EC3
:101F40002D46D63196465C305031C32D7F35DD3D70
:101F5000ED44323E9F33D533D1342C3230335D4D96
:101F6000FF3DEE478D43BD439B3BAC3B2845CD45F4
:101F7000EF4C214DF548EF4D2B4DDB4CFF46D24940
:101F8000714F794F504CB248AB49B93F332F032EB4
:101F9000CA3FEA417F4BA14A8C50E550B550D3501F
:101FA000404EC7457530A7300A318E30F54A625031
:101FB000DD4ADD4AA847B647C62AF82ACD44AB3CDD
:101FC000714D714D88489648E729912AEE3D883D2C
:101FD000473A473A93509350054A2648694F69500B
:101FE000DB2FA6325049ED4B34483448594AA34DB3
:101FF000432E162F8A3BBF3408400E4E534D3C46AD
:102000005633E2327E315D444D504D504A374A37A7
:1020100016381638C031BA32D1383F42E245663DF3
:10202000333D29493D49A74A5C364D43C2364B36BC
:1020300000463D45D14CD12F954184410D411E4173
:102040007E32E33438476D44A03618362F41404184
:10205000494D6A4929302C430F302C43A150A94FD8
:102060005B50DF506A321D330D2CE22B6D2F17327F
:10207000583A233C8D388C3904393838232A5A2A67
:102080005E48AD444B4673411D45D345F046C445BB
:10209000A52F0232CD3CD9418540524000000000BE
:1020A00000000000000000002301020D00000000FD
:1020B00000000000000023010203040D00000000E6
:1020C000000000002301020E05065F5A0000000018
:1020D00000002301020E050603045F5A0000000001
:1020E0002301071A0D00000000000000000023017A
:1020F0000206071A0D000000000000002301671609
:102100000000000000000000000023010206071A82
:102110000D00000000000000233132333451523EE4
:102120007984ACAB000023265D7E31323334353602
:102130005C7984000C0A3A000000000000000000F6
:1021400000000BA2A1A0BA000000000000000000E7
:102150002B6B8E00000000000000000000003041EA
:102160003B00000000000000000000005556573BF7
:10217000000000000000000000003F4B00000000D5
:10218000000000000000000015134B0000000000DC
:10219000000000000000145B254C4B000000000014
:1021A00000000000858664454E974B00000000004B
:1021B0000000371053000000000000000000000085
:1021C000382E9053000000000000000000002F1186
:1021D0009153000000000000000000002C2D53006F
:1021E000000000000000000000004D420000000060
:1021F00000000000000000004F420000000000004E
:102200000000000000004350624200000000000097
:1022100000000000126A4200000000000000000000
:1022200000008DB4B6B5B742000000000000000009
:10223000B4B6B5B742000000000000000000282A34
:1022400027750000000000000000000039095E75DD
:10225000000000000000000000003D7500000000CC
:102260000000000000000000201F494A5400000048
:1022700000000000000078778AB19F540000000041
:10228000000000007054000000000000000000008A
:10229000000080540000000000000000000000006A
:1022A000815966540000000000000000000018176B
:1022B000198E000000000000000000007B7A8E00F4
:1022C000000000000000000000008C248E000000D0
:1022D0000000000000000000407F8E0000000000B1
:1022E000000000000000B32B6B145B8D6964AE9599
:1022F00096A52300999A000000000000000000004D
:102300000000AE959663AF71A3AD94A900000000E4
:10231000A5AA7CA6B0A900000000000000006BA9DF
:1023200000000000000000000000000069A900009B
:10233000000000000000000000001D3C89000000BB
:1023400000000000000000004489000000000000C0
:102350000000000000006E6FB28900000000000065
:10236000000000001C8900000000000000000000C8
:1023700000006C6D890000000000000000000000FB
:1023800026890000000000000000000000000D167B
:1023900022BA000000000000000000000000000061
:1023A0000000000000000000000065BA000000000E
:1023B00000000000000000006187BA00000000007B
:1023C00000000000000000000000000000004E00BF
:1023D000000000030003000014367F3614000205DD
:1023E00002000000231308646200364955225000A1
:1023F000000503000000001C224100000041221CD7
:10240000000014083E08140008083E0808001030B8
:102410007F30100008080808080000606000000015
:102420002010080402003E4141413E0000027F00AE
:1024300000007149494946004149494936000708A9
:1024400008087F002745454539003C4A4949300086
:1024500001017905030036494949360006494929F1
:102460001E000036360000000077770000000814D8
:102470002241000014141414140000412214080016
:102480000201590502001F0E2470F8007E1111117F
:102490007E00417F494936003E4141412200417F53
:1024A00041413E007F49494941007F090909010036
:1024B0003E4141493A007F0808087F0000417F41C2
:1024C00000002040413F01007F08142241007F406E
:1024D000404040007F0204027F007F0408107F001C
:1024E0003E4141413E007F09090906003E4151211C
:1024F0005E007F0919294600264949493200010139
:102500007F0101003F4040403F001F2040201F004E
:102510007F2018207F0063140814630003047804EC
:10252000030061514945430004067F060400000092
:102530000000000044445F4444007E117F49410094
:10254000C0C0C0C0C0C024547854580058342C2493
:102550001A0078141514780000001C1C00000004F8
:10256000080E00080C080C00080D03070008081CE2
:102570001C001C1C1C1C001C1C08080005010B086E
:102580000009080908000A0806020004081C0900DE
:10259000081C081C00081C0808001C091C09001C59
:1025A000090408000908181F001C1C111100121250
:1025B0001C1C00080C0808001D1C1C1C001C1C1CFA
:1025C0000F001B19080C001C1C0806001A21090822
:1025D000001C1C1C11001C121C1C00080C1E1700E7
:1025E000090813080014080908000808080C000866
:1025F000061C1C00101C1A0500061C1C1C00080CE4
:102600000815000816080C0007081C1C001C001BFD
:1026100006001C1C1C00000808090800181F021CEA
:10262000000E1C0C1C000C1C0C1C001C1C1C0400B0
:102630001C201C1C001C1C101C001C081C0800007A
:102640000000000085866E73000000001F2120003E
:1026500000000000716D6F000000000014151617D7
:1026600018191A001FDAB4CD0000000044706D1D67
:102670003C1C838F2B2C00000000000004939495D9
:10268000000000001F6C6B0000000000716D6F0007
:10269000000000000000000000000000000000003A
:1026A000000000007182838400000000048889001B
:1026B000000000001F8A8B0F000000008D8D8E8FA0
:1026C000909192009394950000000000000000009B
:1026D000000000000708090A0000000000000000D8
:1026E0000000000000FFFFFF00000080C0C0FFFFEF
:1026F00000000000C08000000000C0E0E0E0E0E07A
:10270000808080808080E0E0E0E0600080808080E9
:102710000000FF7F000000000000007FFFFF7F41FE
:102720007F417F007F415F5F5F7F1C4141411C0013
:102730004E404101390067400001730073010040C1
:102740006700390141404E00000000000000000019
:1027500000000000530CBA4B753B008E895530A920
:102760003A003F151442853A0037382F2C543A006E
:102770004D4F43128D4B0028393DFFFF3A00207822
:102780008081FF5300187B8C402B3B00AEA569FF76
:10279000FF3B001D446E1C6C26000B0D6165FF3A6B
:1027A0000020602020202020202020202020202009
:1027B0002060200020206020602020200020202099
:1027C00020202020202000000000000000001539FB
:1027D0007734F6350B347E36893417372F34C335CA
:1027E0007B33CF3A6534B23569334938F933E03A4F
:1027F000413407368D330102FF030A0000FFFFFF5B
:102800000BFF000054484520574845454C2049538C
:1028100020444953434F4E4E45435445442046526D
:102820004F4D20204D4F544F522042454341555368
:102830004520494E5445524E414C20564F4C544130
:1028400047452020455843454544532034352056BC
:102850004F4C54212052455354415254204D414332
:1028600048494E45205748454E20574845454C203D
:1028700049532053544F5050454420544F20524503
:102880002D202020414354495641544500484A5583
:102890004C4554204552204B4F424C455420465203
:1028A00041204D4F544F52454E20464F52444920EF
:1028B000494E4E56454E444947205350454E4E4989
:1028C0004E47204F56455220343520564F4C542108
:1028D00020534C62204D41534B494E454E204156AA
:1028E000204F472050622049474A454E204E6252B1
:1028F00020484A554C4554205354414E534553208B
:10290000464F52204F4D5354415254004B4F4E545A
:10291000414B544120464F5248414E444C45522071
:10292000464F52204E59204B4F44452E5241505055
:102930004F52544552412054414C454E204E45443F
:10294000414E2E2056454E542055542054494D4555
:102950004F5554454E2E20534C62204156204F4730
:10296000205062204558204F472020205052615669
:10297000204E59204B4F44452E005245504F525443
:1029800020444154412042454C4F5720544F20523F
:10299000455441494C204445414C45522E204C451C
:1029A000542054494D454F555420504153532E20E7
:1029B000504F57455220455820204F464620414E03
:1029C00044204F4E20414741494E2E20454E54450C
:1029D00052204E455720434F444546524F4D2044C8
:1029E00045414C45522E005452594B4B2050524FAA
:1029F0004720464F52204E59545420464F5253615F
:102A00004B2E20202020205452594B4B20454E5411
:102A1000455220464F522062204156534C55545443
:102A2000452E005452594B4B2050524F47204B4E8D
:102A3000415050454E20464F5220454E2052415362
:102A40004B20204752554E4E494E5354494C4C4909
:102A50004E472041562045582E0050524553532092
:102A600050524F4720425554544F4E20464F52200B
:102A7000515549434B202020202053455455502088
:102A80004F462054484520424A3530303045582E74
:102A900000505245535320502D425554544F4E2010
:102AA000464F522052455452592E2020202020209B
:102AB00020505245535320454E54455220544F20E8
:102AC000455849542E00502D4B4E415050203D202A
:102AD00053454E44204649524D4152452E20202018
:102AE000202020202020454E544552203D20415694
:102AF000534C555454452E00502D425554544F4E6E
:102B0000203D2053454E44204649524D57415245A1
:102B10002E20202020202020452D425554544F4E59
:102B2000203D20455849542E00415454454D5054A1
:102B30005320544F205245414348204D414348497A
:102B40004E45532020202020204245464F5245200C
:102B500044495341424C454400414E54414C4C2061
:102B6000464F5253614B2050622062204E62204DEE
:102B700041534B494E455220204661522044454125
:102B80004B544956455254004D494E494D554D20E0
:102B9000414D4F554E54204F46204D414348494EDC
:102BA0004553204B45505420494E204341544348FF
:102BB0002041524541004D494E494D554D20414E11
:102BC00054414C4C204D41534B494E4552204920D5
:102BD0002020202020204E4150504F4D526244452D
:102BE00054004D4158494D554D20414D4F554E547F
:102BF000204F46204D414348494E45532020202038
:102C000020204841554C494E47205550004D414BDE
:102C100053494D554D20414E54414C4C2055504840
:102C2000414C414E4445202020202020204D41533E
:102C30004B494E4552004E41505028322E48615962
:102C400029202020202020204A554B5328332E4C69
:102C50004156292020202000434154434828322E49
:102C6000484947482920202020204A494728332E18
:102C70004C4F572920202020004E41505028332E01
:102C80004C4156292020202020204A554B532832E1
:102C90002E486159292020202000434154434828D0
:102CA000332E4C4F57292020202020204A494728E6
:102CB000322E4849474829202020004E41505028B4
:102CC000342E4C4156455354452920204A554B53E8
:102CD00028312E486159534554292000434154431B
:102CE0004828312E484947484553542920204A490D
:102CF0004728342E4C4F574553542920002020306C
:102D000020202053455249414C20425546464552C9
:102D100020494E464F2020202020203720004E41C1
:102D2000505028312E486159535445292020204ABB
:102D3000554B5328342E4C41564553544529004396
:102D40004154434828342E4C4F5753455429202092
:102D5000204A494728312E484947484553542900BD
:102D60005052494F5249544552494E4720415620EE
:102D70004A554B53204B4F4E545241204E415050D8
:102D8000004155544F4D41544943414C4C592052F8
:102D900045534554204C494E4520434F554E5445CC
:102DA0005200414354495641544553205748454EDB
:102DB0002057454947485420474F45532042454CEA
:102DC0004F57005041555345204245545745454EB5
:102DD00020424545505320415420535552464143CB
:102DE000452E004D4F544F5220534F465453544F8D
:102DF0005020544F20484F4F4B494E47205A4F4E7A
:102E0000452E00574845454C204C415053204245E3
:102E1000464F5245204D4F544F5220535441525427
:102E2000532E005052494F52495459204A49472085
:102E30004D4F4445205653204341544348204D4F65
:102E40004445004D4F544F52204D594B53544F5011
:102E5000204D4F54204E554C4C50554E4B544554DC
:102E60002E004E554D424552204F46204D41474E73
:102E700045545320494E2054484520574845454C19
:102E800000414B495645524553204E62522056450B
:102E90004B542046414C4C455220554E444552001F
:102EA0004C6253204D4F544F52204E6252204445A5
:102EB0004E2045522053544F505045542E004E55ED
:102EC0004C4C5354494C4C2054454C4C4552454E67
:102ED000204155544F4D415449534B004D4F544F91
:102EE00052204D594B53544F505020544F20484579
:102EF0004B4C45534F4E452E004143544956415487
:102F000045204146544552204D4F544F5220535472
:102F1000415254532E004D4F544F5220534F46545C
:102F200053544F5020544F205A45524F504F494E02
:102F3000542E00414E54414C4C204F4D445220469B
:102F40006152204D4F544F522053544152542E0041
:102F500053455249414C20434F4D4D554E494341F5
:102F600054494F4E204255464645522E004D414B46
:102F700053204841535449474845542046494E4AF6
:102F80005553544552494E47004E625220464152D5
:102F900054534252454D5320455220414B544956BB
:102FA00045525453004D494E2048415354494748D7
:102FB00045542046494E4A5553544552494E4700C0
:102FC0005748454E205350454544204252414B45B9
:102FD00020414354495641544553004245535445BA
:102FE0004D4D4552204D4F544F52454E5320535452
:102FF00059524B450054494D45204245464F524594
:10300000205348494654494E4720464F4E54004BA2
:103010004F4D4D554E494B4154494F4E202D20495F
:103020004E42554646455254004B4F4D4D554E4924
:103030004B4154494F4E202D20555442554646454C
:103040005254004C4F434B204D4F544F5220574841
:10305000454E2053544F505045442E004E554D423E
:103060004552204F4620424545502041542043417F
:103070005443482E0046554B54564552444945202A
:103080004E454452452053454E534F522E0048550D
:103090004D4944494459202D205550504552205304
:1030A000454E534F522E0048554D494449545920DE
:1030B0002D204C4F5745522053454E534F522E0012
:1030C000414E54414C4C204D41474E4554455220B1
:1030D0004920484A554C4554005748454E205748CA
:1030E00045454C2049532050554C4C4544204F55A4
:1030F0005400203120202032202020332020203472
:103100002020203520202036200046554B5456459F
:103110005244494520615652452053454E534F5223
:103120002E0028434F4E54524F4C4C454420425998
:1031300020424A3530303029004C62534546414BDD
:10314000544F52205354415254564552444945001D
:10315000504155534520564544204E554C4C204F28
:1031600047204E415050004856495320484A554C3C
:103170004554205452454B4B45532055540053540D
:103180004F505054494420464F52204D4F544F52B7
:10319000454E2E00544944204546544552204D4F3B
:1031A000544F5253544152542E004D4158494D559D
:1031B000494D20504F57455220464143544F5200ED
:1031C0004B4F42424C494E472D424F4F535420469D
:1031D000414B544F52005748454E2050524553538F
:1031E000494E4720425554544F4E53004D554C5470
:1031F00049204C414E475541474520534554555071
:1032000021004D494E494D554D20535045454420D0
:1032100054554E494E47004D4158494D554D205348
:10322000504545442054554E494E47004D41582085
:103230004445505448204841554C494E472055502C
:10324000004D494E494D554D20504F57455220464F
:103250004143544F52002853545952532041562051
:103260004D41534B494E454E290053414D41524229
:1032700045494420564544204E4150502E00454B70
:1032800053545241204D4F544F5220535459524B96
:10329000450054494420494E4E414E20464F4E541D
:1032A00020425954450044454349444553204D4F1D
:1032B000544F5220504F57455200434C55544348A9
:1032C0002D424F4F535420464143544F52004348E0
:1032D0004F4F53454E204C414E475541474520499D
:1032E000530053484F572053544154595320535976
:1032F0004D424F4C5300554E4954204F46204D45AA
:1033000041535552454D454E54004D4F44454C4C4C
:103310002847454E45524154494F4E290043415498
:10332000434820434F4F5045524154494F4E2E0081
:103330005245544E494E47202D204C494E55545429
:103340004147004C62534546414B544F5220454E35
:1033500044454C4947005649534520535441545520
:10336000532053594D424F4C002D54524F4C4C4911
:103370004E472D20202020202020002D4D41434B62
:103380004552454C2D20202020202020002D424554
:103390004C494D454E592D20202020202020004F03
:1033A00056414E20445942444520202020202020D0
:1033B000004D4F544F52204641525420202020208F
:1033C0002020004D4F544F5220535045454420205B
:1033D000202020200041424F56452044455054486B
:1033E000202020202020004D414B5320484A554C9E
:1033F0004641525420202020002D46495348204663
:10340000494E44494E472D202020002D535445500D
:103410002046495348494E472D202020004D4F5407
:103420004F52204D594B5354415254202020002DCF
:10343000424F54544F4D202B20535445502D2020A3
:10344000002D52455441494C4552204D454E552D75
:103450002020004D415820574845454C20535045A9
:1034600045442020002D4D41434B4552454C202BD7
:10347000204A49472D20002D4E4F524D414C2046A9
:10348000495348494E472D20002D424F54544F4D2B
:103490002046495348494E472D20004D4F544F5226
:1034A0002053544152542054494D4520004D4F441F
:1034B000454C2847454E45524154494F4E290053EB
:1034C000455249414C204E554D42455220524334BD
:1034D000004D414B534459424445204F50504452B3
:1034E0004147004558545241204D4F544F522050AF
:1034F0004F574552004C494E452050554C4C532097
:103500004F5554204259004E4554572E20434F4F9B
:10351000502E20484F4F4B5A005B20202020202067
:1035200020202020202020202000205B2020202080
:10353000202020202020202020200020205B202070
:103540002020202020202020202020002020205B60
:10355000202020202020202020202020002020208B
:10356000205B202020202020202020202000202040
:103570002020205B2020202020202020202000440C
:103580004F5247494E472020202020202020200055
:103590002020202020205B202020202020202020F0
:1035A00000202020202020205B2020202020202000
:1035B00020002D444F5247494E472D2020202020E7
:1035C0002020002D4D414B52454C4C2D20202020D9
:1035D000202020004155544F204D4F4445202020AD
:1035E000202020200020202020202020205B2020C0
:1035F0002020202020002D48494C4649534B452D82
:10360000202020202020002D42454C494D454E5978
:103610002D202020202020004C4F414420205341C9
:10362000564520202020202000202020202020205F
:10363000204D4D2020202020200020202020202050
:1036400020204E4F20202020202000574845454C68
:10365000204C415053202020202020004C62534514
:10366000204D4F4455532020202020200020202092
:103670002020202020205B202020202020002D4200
:10368000554E4E4649534B452D2020202020004DBD
:10369000414E55414C204D4F4445202020202000D4
:1036A00048454E5420204C414752452020202020A0
:1036B00000202020202020202052504D202020209B
:1036C0002000414E54414C4C204F4D44522020206C
:1036D0002020002020202020202020504353202084
:1036E000202020004D454D4F5259204D4553532029
:1036F00020202020002020202020202020464F5461
:1037000020202020200020202020202020202020D9
:103710005B2020202020002D42554E4E202B20489B
:10372000494C2D202020200043414C4C2044454151
:103730004C45522E20202020002020202020202018
:1037400020535445502020202000504C45415345E3
:1037500020454E54455220202020002020202020AB
:103760002020204C415053202020200020202020C9
:1037700020202020464545542020202000202020C5
:103780002020202020564F4C542020202000202094
:103790002020202020202020205B202020200045E9
:1037A00046544552204F505044524147202020005B
:1037B000205345524945204E554D4D45522020201D
:1037C0000020202020202020204D4554455220203C
:1037D00020002020202020202020484F5552532018
:1037E0002020004D414E55454C4C204D4F445553E3
:1037F000202020004645494C2049204D494E4E4549
:1038000054202020002020202020202020202020A4
:10381000205B2020200053455249414C204E554DFD
:10382000424552212020004D41534B494E454E20E8
:103830004C6253542120200020202D2057454C431A
:103840004F4D4521202D2020002D4649534B454CFE
:1038500045544E494E472D20200020202020202076
:103860002020414D504552452020004731204F4CEB
:10387000444552204D4F44454C2020004732204EB5
:1038800045574552204D4F44454C20200054454D4E
:103890005020464152542020532F4E2020002020FB
:1038A00020202020202054494D4D4152202000202E
:1038B00053455249414C204E554D4245522020001F
:1038C000202020202020202046414D4E45522020FF
:1038D000005056202D20484A554C535441525420F4
:1038E0002000202020202020202020202020205BBD
:1038F0002020004D414348494E45204C4F434B4505
:1039000044212000202D2056454C4B4F4D4D454E17
:1039100021202D20002D56414E4C49475420464928
:10392000534B452D200020202020202020444953A7
:1039300041424C45442000202020202020202020EF
:10394000204C415247452000414C5741595320419A
:10395000542043415443482000473120454C4452B1
:1039600045204D4F44454C4C20004732204E594590
:103970005245204D4F44454C4C2000202020202013
:10398000202020204D454449554D200054454D50A0
:103990002053504545442020532F4E2000414C4C8D
:1039A00054494420564544204E41505020004D4536
:1039B00044204B4E415050454E204F505020004126
:1039C00046544552204841554C454420555020000E
:1039D000202020202020202020202053543052203E
:1039E0000020202020202020205354594B4B4552AA
:1039F000200020202020202020205345434F4E44EB
:103A00005320004D494C4C492D20205345434F4EE7
:103A100044532000202020202020202046415448CC
:103A20004F4D5320004155544F4D41544943204D73
:103A30004F4455532000242020202020202043459F
:103A40004C434955532000202020202020202020B6
:103A50002020205245542000564F4C54205354529D
:103A6000614D2046554B5420002520202020202049
:103A70002050524F43454E54200025202020202026
:103A8000202050455243454E542000202020202025
:103A900020202020202020205554200020202020DD
:103AA000202020202020202020205B2000202020FB
:103AB000202057524F4E4720434F4445210020209D
:103AC000202020204645494C204B4F444521002DC5
:103AD0004D414B52454C4C202B204A554B532D0009
:103AE0002D464F5248414E444C45524D454E592D5E
:103AF000004A554B5320204E415050204F505048C3
:103B00002E00424154544552592052454D4F564182
:103B10004C2E004A49472020434154434820484105
:103B2000554C2E0020202020202020204F4D445294
:103B3000454A4E2E00444550544820524544554372
:103B400054494F4E2E002020202020415420504F19
:103B500057455255502E005A45524F20205345414B
:103B600020484F4F4B5A2E0020202020202020207C
:103B70002020424A353030300020202020202020D4
:103B800049562031392C332C3200534552494520B7
:103B90004E554D4D455220524334004E4F4C4C41F2
:103BA00020524547202B204B4F443F00434C45417A
:103BB00052205245472B434F4445533F002020207D
:103BC000204749564152453A2020412042002020BA
:103BD000202053454E534F523A2020412042004D61
:103BE0004F544F52205041555345204341544300B8
:103BF0002020202020205245564552534552414412
:103C000000424154544552492055544B4F424C4573
:103C100044004C494E452044524153205554204DB8
:103C2000454400564F4C5420435552522E2048557F
:103C30004D49440020202020202020202020414CDD
:103C40004C54494400445241472043415443482086
:103C50004252414B45004E4554562E2053414D2073
:103C60002048454B4C45004E554C4C202056414E6B
:103C70004E2048454B4C450053544F502049204856
:103C8000454B4C45534F4E450053544F5020494EE1
:103C900020484F4F4B5A4F4E450052494E47204601
:103CA0004F5248414E444C4152450053454E4449C1
:103CB0004E47204649524D574152450057484545C9
:103CC0004C204252414B45204D4F5245004F5050E1
:103CD0002020204E454420202056495345002020D6
:103CE0002020202020202052455645525345004C8C
:103CF0004F43414C20414E442052454D4F544500C6
:103D00002020202020202020202020534C415645D8
:103D100000202020202020564544205062534C4152
:103D2000470020204546544552204A554B534452A3
:103D30004147004252454D53205245445553455248
:103D4000494E47004146544552204A4947204C4578
:103D50004E475448002020202020202020202020D2
:103D600020424F54480053484F5720434154434842
:103D7000204445505448002020202020202020208E
:103D80002020414C4452490053504545442044456D
:103D900050544820484F4F4B0048466172742041B0
:103DA00063634B2042726D734B0020202020202043
:103DB00020202020204C4F43414C00202020202058
:103DC00020202020204E4F524D414C00202020200A
:103DD0002020202045585445524E414C005350411C
:103DE0004E495348204D41434B4552454C004641B6
:103DF0005254532044594244452048454B4C0046B8
:103E00004F524D415445524120454550524F4D006F
:103E1000202020202020414E565E4E444152454EE7
:103E2000004D494E20535045454420574954484978
:103E30004E0044455054482044524147202D204DC7
:103E4000494E00205553494E472055502042555465
:103E5000544F4E00202020202020202020454B536E
:103E60005445524E004C4F4B414C54204F47204537
:103E7000585445524E00444953502020494E464F15
:103E80002020424545500044495350202020494EAF
:103E9000464F2020504950002020202041534B20E5
:103EA000414E442048454C50002020202041534B97
:103EB00020464F522048454C50002020205350614E
:103EC00052204F4720484A454C5000202053506113
:103ED0005220464F5220484A454C5000534E5552AE
:103EE0005220505245462E2053544F50004C2D4DD9
:103EF00045535320505245462053544F50004D4F88
:103F0000544F52205041555345204E4150500020AF
:103F10002020202020202053454B554E4445520060
:103F20004D494C4C492D202053454B554E4445524C
:103F30000044494D204E594C4F4E2054454C4C4561
:103F40005200484A554C20204252454D5320204DA6
:103F500045520020202020202020204D41534B4955
:103F60004E455200202020202020202020202020EC
:103F7000555345520044494D204C494E4520434F2E
:103F8000554E544552002020202020202020202063
:103F9000204E4556455200414C4C544944205062F5
:103FA000204E45445455520020202020202020201F
:103FB0004D414348494E4553004E554D42455220D0
:103FC0004F462050554C53455300445942444553A5
:103FD0004C5552202D204D414B5300534C555220EF
:103FE0004E41505020204252454D53004E554D42B7
:103FF0002E424A353320535441525453004F5050AF
:1040000048414C4E494E47204D4F445553002020C7
:104010002020202020202020414C574159530020AF
:104020002020202020202020202020205245540025
:1040300048454B4C532E2020202020202052455410
:1040400000484F4F4B5A2E20202020202020524540
:1040500054005245535441525420202020202052D5
:1040600045540045582020202D2D2D2D2020202086
:10407000524554004D414E552E204D455220202092
:10408000205245540062544552535441525420200A
:10409000202052455400434F444520204D4F524567
:1040A000202020524554004D414E552E204D4F5258
:1040B000452020205245540053544F502D502E205F
:1040C0005250202020524554004B4F444520202080
:1040D0004D45522020205245540053544F502D50EE
:1040E0002E205056202020524554004D594B5354F9
:1040F0002E204C625345202052455400534F4654C5
:10410000532E204C4F434B202052455400564953C8
:1041100045204D454E5945522020524554005348A4
:104120004F5720204D454E555320205245540046B0
:10413000414252494B4B2050524F47205245540068
:10414000464143544F52592050524F4720524554F4
:10415000004E554D422E534552562E205245534542
:104160005400202020202020202020204C4F4B4194
:104170004C54004259204D4F544F522043555252F7
:10418000454E5400444953502020204241522020A3
:10419000464F4E5400444953502053544F4C5045C1
:1041A00020464F4E540020202020202020564544F9
:1041B00020535441525400202020202020204956D2
:1041C00031392D4849535400202020202020202020
:1041D00020202020534C4156005550202020444F91
:1041E000574E20202053484F5700444550544820F4
:1041F00044524147202D204D4158002020484A4537
:104200004C5020414E445245204558002020204823
:10421000454C50204F5448455220455800202020FE
:104220004154205354415254204F4E4C59004C4F4E
:104230005720424F41542042415454455259005254
:1042400045564552534520504F4C41524954590010
:104250002020202020202020202020202020205B23
:104260000048757675646C6F6F7073736E757272DB
:10427000610020202020202042617220327261647F
:10428000696700202020204163636272656D736B53
:104290006F6D700020202020202020202032737499
:1042A0002042617200202020202020202020337313
:1042B0007420426172002020202020426F747465B7
:1042C0006E74696D657200202020204E6170706EE2
:1042D000657274696D6572002020202052657374C8
:1042E00061727474696D6572002020202020202086
:1042F0002020446961676E6F7300202020202020F9
:1043000020202020322042617273002020202020B3
:1043100020202020203320426172730020202020A2
:104320002020202020202020202020200053545214
:10433000614D2020202020202020202000534E5599
:10434000525220202020202020202020004C4F43AB
:104350004B204D4F4445202020202020004C494E2A
:1043600045204D4553532020202020200043415418
:10437000434820444F574E202020202000464152E1
:1043800054534252454D5320202020200042524594
:104390004D532B203D204A412020202000535045E2
:1043A0004544204252414B45202020200056414C9C
:1043B0005545532046524F4D202020200042524167
:1043C0004B452B203D20594553202020004C494E81
:1043D0004520445241532055542020200048454E4A
:1043E00054205354414E444152442020004D4F54D8
:1043F0004F522043555252454E54202000494E53AF
:1044000054494C4C494E472046524120004E4150A1
:1044100050205062204E454454555220004C415685
:104420002042625442415454455249210056454E5F
:104430004E4C494753542056454E5421005452592E
:104440004B4B204B4E415050454E202D0041535375
:10445000495354494E472054494D452E00534F4629
:10446000542053544F502054494D452E0043484F3B
:104470004F53452050524F4752414D2E0048454E14
:1044800054455220564552444945522E004C4F4106
:1044900044494E47205641554C45532E002020207C
:1044A00020202020202020204B45583A0057454905
:1044B00047485420414646454354454400484155E9
:1044C0004C494E47205550204D4F44450053454ED2
:1044D000444552204649524D56415245004D494EA1
:1044E000204D4F544F5246415254204900445942A6
:1044F0004445534C5552202D204D494E0048454BC4
:104500004C45534F4E45204252454D53004C4F4170
:1045100044494E472044454641554C54004156209D
:104520004D4F544F524E532046415254004C494E29
:10453000452050554C4C4544204F555400464F4E55
:10454000542053495A45202020202000414E5441F8
:104550004C4C204A554B53202020004C494E4520BE
:104560004449414D455445522E004E594C4F4E44FE
:1045700049414D455445522E00534156494E47201E
:1045800056414C5545532E0053544F502041542012
:10459000484F4F4B5A2E004341544348204D41440D
:1045A000452042593A0046414E4753542052454710
:1045B0002050623A005354414E4E4120564544200B
:1045C00030203F00425920574845454C2053504524
:1045D0004544004259204D4F544F522053504545B9
:1045E000440056495341204E41505044594244459D
:1045F000004C494E45204D455353204D4F444500F6
:10460000464F4E54205354615252454C5345004C32
:104610004156204262544241545445524900484F49
:104620004F4B5A4F4E4520425245414B0056454450
:10463000204B4E4150505452594B4B0048554D4918
:104640004449545920414C41524D004156204D4F50
:10465000544F5220535452614D00535441525441CF
:10466000204D4F544F52454E004459424445524507
:1046700044554B534A4F4E004552524F52205641DB
:104680004C5545204E4F004552524F5220564552F0
:104690004449204E4F00414E54414C205645442041
:1046A0004E415050005350415245522056455244BD
:1046B000494552004F55544552204449414D4554B7
:1046C0004552004B4559424F415244204552524FAA
:1046D0005200544742204B4E4150504552524F5287
:1046E000004E554D424552204F46204A49475300FF
:1046F000415620484A554C455420464152540041A9
:1047000055544F206254455253544152540042452F
:10471000534B595454454C53452021005055534850
:1047200020425554544F4E202D0053455256494374
:10473000452054494D452E0056454C472050524F78
:104740004752414D2E0046524947414E47534F4D27
:1047500044522E0063484F5552204D455445522037
:104760003A006354494452454749535445523A002C
:1047700053544F50204154205A45524F3F0020205F
:10478000202020202020204C4F4444004445544504
:104790004B534A4F4E5354494400534C5552204BAF
:1047A0004E415050454E450053454E4420464952D7
:1047B0004D564152450053454E44204649524D57AF
:1047C0004152450020202053494D554C4552494EF9
:1047D000470053544550204A49472050524F470004
:1047E0004D494E494D554D20444550544800464F83
:1047F000524D415420454550524F4D00202020201D
:1048000020204D4F544F52454E0020202053494DFB
:10481000554C4154494F4E00202020202020205349
:10482000494E4B4552004D494E494D554D20504F34
:1048300057455200504152414D4554455220464F34
:1048400052005447422D494E54204552524F520077
:1048500020202020202020204D4F544F520056452C
:104860004B542050625649524B455300204452410C
:104870004720425554544F4E530053544F502049F3
:104880002056414E4E4554004649524D56415245E0
:104890002053454E54004649524D574152452053EE
:1048A000454E54004D4F544F5220414E44204D45EB
:1048B0005800524553504F4E532044454C415900E7
:1048C000464F524D415454494E472E2E2E004649D4
:1048D000524D574152452020203A002020202020D0
:1048E000202053544550200050524F5445435449C2
:1048F0004F4E202100455220464A45524E455420F5
:104900002100504C45415345205741495421005303
:10491000455256494345205449442E0053544F5064
:104920002048454B4C45532E00425245414B2052A6
:104930004544554345004D494E5354452044594242
:10494000444500484F4F4B494E47205A4F4E450073
:104950004E454452452053544F4C50450050554C01
:104960005345204C454E4754480053454E44494E0C
:1049700047204641494C00464953482050524F4732
:1049800052414D0042554E4E2050524F4752414DDC
:10499000004649534B4550524F4752414D00494EF6
:1049A0004E464F524D41534A4F4E00414E54414C9A
:1049B0002050554C534552004D4F544F52205354A4
:1049C00041525453004341544348204445544543C5
:1049D00054004155544F2052455354415254004DB8
:1049E0004F544F52204F47204D45580042454C49A7
:1049F00054524F4E494327530056414C5420535074
:104A000052624B2E004752554E4E4B524146542E49
:104A10000053544F5020494E2053454100564953AE
:104A20004E494E47535449440046414E475354441F
:104A300059424445004E594C4F4E4D454E47444512
:104A400000545956455249204B4F44450044455463
:104A50004543542054494D45006156524520535416
:104A60004F4C50450054454D5045524154555245C8
:104A70000050554C53452050415553450044455036
:104A8000544820504155534500424F54544F4D20F7
:104A900050524F470053544550204C454E475448C0
:104AA0000041424F5645204445505448004445502B
:104AB000544820425245414B0048494C2050524FE7
:104AC0004752414D00494E464F524D4154494F4E79
:104AD00000434F4F5045524154494F4E004D4153B2
:104AE00054455254494D455200534E555252204D53
:104AF0004F4455530044524549454D4F4D454E5442
:104B000000486147204E495662212020004849470D
:104B100048204C4556454C2100524553544152546F
:104B200020464F52003C2052582044415441203EE0
:104B3000003C2054582044415441203E0020202075
:104B4000204F46462020200020202020494E4E2085
:104B500020200020202020204F4E20202000202038
:104B6000202020555420202000484A454C504554D0
:104B700049442E004C494E45204D4553532E004F7D
:104B800056414E20445942444500484A554C4252F1
:104B900045444445004A554B534C454E4744450017
:104BA00050554C534C454E47444500544845465497
:104BB00020434F4445004C494748542054494D45F3
:104BC00000535445502050415553450044594244E8
:104BD000455041555345004D4F544F525354526127
:104BE0004D0020202020202020204E4F00424F54F6
:104BF000544F4D2042415200424F4F544C4F41447C
:104C00004552004F4D445245494E47455200544588
:104C10004D50455241545552004459424445425228
:104C2000454D5300574845454C204C415053004298
:104C300052494748544E455353004E415050204D21
:104C40004F44555300424F4F535420564F4C54003D
:104C5000535641525344454C41590050524F442001
:104C600030302D31460050524F442032302D3346E3
:104C70000050524F442034302D35460050524F449E
:104C80002036302D37460050524F442038302D39D1
:104C9000460050524F442041302D42460050524F62
:104CA000442043302D44460050524F442045302D7F
:104CB0004646002020534C415620202000202053FF
:104CC0004C41564520200020204D41535445522050
:104CD00000414B54495645525420004341544348E7
:104CE000204C45440053414D415242454944004DFA
:104CF000414B5344594244450048494C4C454E476A
:104D00004445004A554B53204D4F4445004C5953A0
:104D1000535459524B450050554C535041555345EF
:104D2000004D4158204445505448004E4150504297
:104D30004C494E4B0054454C4C455645524B004651
:104D4000524545574845454C0053454E442046453D
:104D5000494C0046554B54204C41524D0044495259
:104D6000454354494F4E0054494D4520444F574EFA
:104D70000053454E442042494F53004D624C454537
:104D80004E4845540050562D4B4F52544554004404
:104D900052495620564F4C54004D4F544F524641A5
:104DA000525400555050455220524F5700524553CF
:104DB000544152542020004D414348494E45202142
:104DC00000424A35303030204558004E4F52534B48
:104DD0002020200053494D504C452020004E4F527A
:104DE0004D414C202000454E474C4953482000453A
:104DF0005241534544202100455854454E444544B2
:104E00000044495354414E4345004A4947204D4FC1
:104E10004445004C414E47554147450053484F5784
:104E200054494D450048494C5041555345004C4963
:104E30004E4520555445005350454E4E494E47006F
:104E4000484A554C4641525400434F4E54524153E8
:104E500054004B4F4E5452415354004C494E452040
:104E60004F55540063532F4E204B4558004020208F
:104E7000202020205D00444F4E452120202000436B
:104E80004C454152494E47005F5F5F5F5F5F5F5F28
:104E900000454E4B454C2020004E4F524D414C207A
:104EA000002D2D2D2D2D2D2D00414D502020203A4F
:104EB000004452414720203A0054454D5020203AAA
:104EC000004E41505020203A00534C555220203A79
:104ED0000056454B5420203A004241545420203A79
:104EE000004252414B45203A004341544348203A46
:104EF00000535452614D203A004252454D53203ADE
:104F000000424F4F5354203A004D4F542849293AFC
:104F1000004B4F50204E4D3A004D4F54204E4D3ACD
:104F200000434C55204E4D3A004D4F5452504D3A8F
:104F3000005745494748543A00544944204E454497
:104F4000004D624C455449440041565354414E442F
:104F50000052502D4341524400564F4C5441474556
:104F6000004D414348494E45004B4F424C494E4746
:104F7000004E45545645524B004E4554574F524BE8
:104F800000544944204F50500054494D452055503D
:104F9000002046414D4E45520020204D455445527B
:104FA00000464154484F4D530041444452455353E9
:104FB0000055545649444554002020204645455448
:104FC0000020202020464F5400532F4E204D45589E
:104FD000005365727669636500545241494E203A28
:104FE00000464C414747413A004C415354534C3AD8
:104FF000005554475255503A004D54494D45523A88
:10500000005245535452543A005554534C41563A69
:105010000054494D454F555400444953504C415953
:10502000004445564943452100554E4B4E4F574E7F
:10503000004155544F20200020444F4E4521002070
:105040004B4C41522100534E5552522E0050524F5C
:1050500044203A004C59535449440047525550504B
:105060004500544F5251554500434C555443480058
:1050700053595354454D00424F54544F4D004D41E8
:10508000534B494E00504155534552004D454E59E2
:1050900045520053454E534F5200504155534553CE
:1050A0000041445245535300454E44455354004C2F
:1050B000494E4520004E4956622000434154434822
:1050C00000574944544800535052624B00544F54C7
:1050D000414C004C4556454C004E594C4F4E0047F4
:1050E000524F5550004D454E5553003A20313256DF
:1050F000003A203234560042494F533A005049504A
:1051000020005645523A004350553A004C4F47470D
:1051100000484A554C0042554E4E004155544F00F0
:105120004F4646200036373232003636323700528C
:1051300045563A004D45583A004A4947003C3C3CE8
:10514000003138460056290028002B002C003B0077
:1051500000000001BA6BBB6BC36BC46BBF6BC06B51
:10516000B86BB96BFF513DEC3FF0DECFC1F0DDCF46
:10517000C2F0190EFF1918E1960E796F430E7A6F7F
:10518000CB0E7B6F3F0E7C6F57EC41F0C5EC7EF091
:10519000F4ECA1F029EC78F05BEC99F032EC78F0CB
:1051A000B7ECABF085EC42F0120EFF1910E0160ED2
:1051B000FF190DE0660EFF190AE0670EFF1907E000
:1051C000690EFF1904E06A0EFF1901E081D057EC67
:1051D00041F0C5EC7EF0F4ECA1F017C0ADF018C0C2
:1051E000AEF019C0AFF01AC0B0F04CEC42F0420E75
:1051F0007C6FADC075F0AEC076F0AFC077F0B0C0D8
:1052000078F05BEC99F089EC8FF02AEE2EF07FECD1
:1052100088F0F4ECA1F089EC88F07EEC9BF035C0CE
:10522000ADF036C0AEF037C0AFF038C0B0F0ADC0B2
:1052300079F0AEC07AF0AFC07BF0B0C07CF029EE60
:10524000BCF07FEC88F0F4ECA1F029EC78F05BEC9A
:1052500099F075C0A2F076C0A3F077C0A4F078C032
:10526000A5F0DB0EDAEC41F0A2C075F0A3C076F039
:10527000A4C077F0A5C078F05BEC99F075C0A6F0FB
:1052800076C0A7F077C0A8F078C0A9F0A6C075F0E6
:10529000A7C076F0A8C077F0A9C078F084EC41F000
:1052A0005BEC99F075C0ADF076C0AEF077C0AFF0B2
:1052B00078C0B0F0ADC08EF0AEC08FF0AFC090F04F
:1052C000B0C091F0B7ECABF085EC42F0020EB26FDB
:1052D000150EFF1906E0160EFF1903E0670EFF1901
:1052E00002E1020EB26FFF510EE1C2AF0CD0C1C09D
:1052F00017F0C2C018F01A681968D1ECB6F017C0E0
:10530000C1F018C0C2F0AF0E0001FF190CE1F4CAE1
:105310000FF0F5CA10F014EC43F079ECAFF00FC0C9
:10532000C1F010C0C2F0010E4D6EC1C00FF0C2C07E
:1053300010F0C1EC42F079ECAFF00FC0B4F010C047
:10534000B5F0B5EC40F0D1ECB6F00001C151172436
:105350000F6EC2511820106E7FEC41F079ECAFF067
:105360000FC0BAF010C0BBF0B5EC40F0D1ECB6F015
:1053700095EC40F0D1ECB6F0D3EC40F0C15198255B
:105380000F6EC2519921106EDFEC42F079ECAFF054
:105390007BEC42F0B5EC40F0D1ECB6F095EC40F08F
:1053A000D1ECB6F0D3EC40F0CBEC40F0D1ECB6F061
:1053B000C4EC41F0C1519A250F6EC2519B21D1EC32
:1053C00041F079ECAFF010EC42F0B5EC40F0D1ECEC
:1053D000B6F095EC40F0D1ECB6F0D3EC40F0CBEC6D
:1053E00040F0D1ECB6F0C4EC41F015EC42F09CEC8E
:1053F00068F0D1ECB6F0175000019A259C6F185058
:105400009B219D6FC1519C25B86FC2519D21B96FE1
:10541000EBEF3EF0C1510101E61904E1CCEC41F0A3
:1054200001E1C4D002017D517E1101E0BFD06B0EBD
:105430000001FF6505D0700EFF6102D0CBEC42F099
:10544000050E0001C56F100EC76F790EFF1906E03B
:105450007D0EFF1903E08A0EFF1901E1C76BAD0E47
:10546000FF1902E10A0EC76FCDEC3FF06CEC4EF075
:10547000C1510900F5181DE1C2510900F51819E1E3
:10548000ACEC3FF06CEC4EF00800F51C12E0C7C02D
:1054900018F076EC3FF0ACEC3FF06CEC4EF05BECCF
:1054A0003FF080EC3FF045EC3FF0C5517AECA2F0C4
:1054B00060D0A7EC4EF06CEC4EF0C1510900F5182D
:1054C0001AE1C2510900F51816E1AFEC3FF054ECB7
:1054D0005DF0F51C10E0C7C018F076EC3FF0AFECC3
:1054E0003FF054EC5DF061EC3FF045EC3FF0C5510E
:1054F0007AECA2F03ED0BA51BB1107E14DEC40F07E
:105500007AECA2F06DEC42F005D09FEC41F02AEC71
:10551000B7F0F8D7C351C4110AE1BA51BB1107E182
:105520004DEC40F07AECA2F06DEC42F005D0AFEC1F
:1055300041F02AECB7F0F8D7BF51C0110DE1C351CB
:10554000C4110AE1BA51BB1107E14DEC40F07AEC0D
:10555000A2F06DEC42F005D0A7EC41F02AECB7F0D8
:10556000F8D797EC41F02AECB7F0C6EC42F015EC16
:10557000ABF00F0E0001FF1917E14D6A0F0E186E08
:1055800076EC3FF021EE08F048EC40F031EC41F0D1
:10559000F9EC40F0C2EC40F0CC0E47EC41F09CEC52
:1055A0003FF0070EB8ECA8F080EC42F0950E000139
:1055B000FF1901E08FD044A08DD04D6A186A090E02
:1055C000196E500E1A6E040EB8ECA8F0070E316E6C
:1055D0004EC032F0ACEC6BF04EECA6F00A0E186E3A
:1055E000E10E196E4F0E1A6E040EB8ECA8F0110EF3
:1055F000316EBAC132F0B0EC6BF04EECA6F0160E84
:10560000186ED90E196E4F0E1A6E040EB8ECA8F073
:105610001D0E316E83C232F084C233F0A6EC6BF003
:105620004EECA6F0186AF10E196E4F0E1A6E050EAA
:10563000B8ECA8F0070E316EFEC032F0336A15ECFC
:1056400085F04EECA6F00A0E64EC42F0050EB8ECC4
:10565000A8F0110E316EA4C132F0A5C133F068EC90
:1056600041F04EECA6F0160E186EF90E196E4F0EA4
:105670001A6E050EB8ECA8F01D0E316EC6C132F0E0
:10568000336A68EC41F04EECA6F00A0E186E010E7B
:10569000196E500E1A6E060EB8ECA8F0110E316E8F
:1056A000C1C232F0C2C233F0A9EC6BF04EECA6F0EE
:1056B000160E186EE90E196E4F0E1A6E060EB8EC25
:1056C000A8F01D0E316EC7C132F0336AA9EC6BF041
:1056D0004EECA6F06E0E0001FF1904E06F0EFF19EC
:1056E000D8A412004D6A6E0EFF191EE18DEC41F038
:1056F00092EC8FF09EEC42F011E2B7EC41F007E142
:10570000B7EC42F01A6E050E7AECA2F00DD0ADECBB
:1057100042F01A6E050E7AECA2F006D036EC42F09A
:105720001A6E050E7AECA2F06F0E0001FF19D8A4D4
:10573000120092EC41F092EC8FF09EEC42F009E204
:10574000B7EC41F003E1B7EC42F005D0ADEC42F02C
:1057500002D036EC42F01A6E050E7AEFA2F0C1517B
:105760000101E61904E1CCEC41F0D8B412000201C9
:105770007D517E11D8A412001C0E0001FF1909E012
:105780001D0EFF1906E03C0EFF1903E0440EFF1941
:1057900002E1CBEC42F0020E0001B2190C0ED8A4CB
:1057A0000E0EC76F050EC56FFF513DEC3FF0CDECFF
:1057B0003FF06CEC4EF0DE500900F5181EE1DE50B3
:1057C0000900F5181AE1ACEC3FF06CEC4EF0080063
:1057D000F51C13E0C7C018F076EC3FF0ACEC3FF0DE
:1057E0006CEC4EF05BEC3FF080EC3FF045EC3FF0B2
:1057F000C5517AECA2F080EF42F0FF513DEC3FF052
:10580000A7EC4EF06CEC4EF0DE500900F5181BE1F1
:10581000DE500900F51817E1AFEC3FF054EC5DF0F5
:10582000F51C11E0C7C018F076EC3FF0AFEC3FF08C
:1058300054EC5DF061EC3FF045EC3FF0C5517AEC83
:10584000A2F080EF42F0020EB21915E1B451B51189
:1058500007E14DEC40F07AECA2F00001C72B0AD032
:10586000C7C026F0B4C027F0B5C028F0C5512AEC57
:10587000B7F0F3D7C72BBA51BB110AE1B451B51138
:1058800007E14DEC40F07AECA2F00001C72B05D007
:105890009FEC41F02AECB7F0F8D7C72BC351C411E5
:1058A0000DE1BA51BB110AE1020EB21907E04DEC4D
:1058B00040F07AECA2F00001C72B05D0AFEC41F02C
:1058C0002AECB7F0F8D7C72B020EB21906E1BCECF0
:1058D00041F07AECA2F06DEC42F0A7EC41F02AEC3A
:1058E000B7F00001C72BC72B020EB21906E0BCECC3
:1058F00041F07AECA2F06DEC42F097EC41F02AEC2A
:10590000B7F0C6EC42F015ECABF080EF42F0C151BD
:105910000101E61904E1CCEC41F0D8B41200120EFA
:105920000001C76F050EC56F2DD0C7C018F076EC0B
:105930003FF0BCEC3FF032EC3FF0C5517AECA2F006
:1059400080EF42F0C7C018F076EC3FF0040EEFECA9
:105950003FF0BCEC3FF032EC3FF0C5517AECA2F0E6
:1059600080EF42F0C7C018F076EC3FF0080EEFEC85
:105970003FF0BCEC3FF032EC3FF0C5517AECA2F0C6
:1059800080EF42F0FF513DEC3FF097EC3FF0975134
:10599000BCE19651CAE0010AD5E0030AE3E080EFDA
:1059A00042F0E70EFF25D96EDA6A000EDA22DF50E8
:1059B000C66FE7ECAEF0DF50C76FEEECAEF0DF5035
:1059C000BE6F0101E19D4D6AB45102E069EF35F00F
:1059D00043A267EF35F00001C6A107D0010E1EEC0F
:1059E00041F0020EB8ECA8F006D0010EE7EC40F052
:1059F000020EB8ECA8F00001C6A307D00C0E1EECF6
:105A000041F0020EB8ECA8F006D00C0EE7EC40F026
:105A1000020EB8ECA8F00001C6A507D0170E1EECC8
:105A200041F0020EB8ECA8F006D0170EE7EC40F0FB
:105A3000020EB8ECA8F00001C6A707D0010E1EECBC
:105A400041F0050EB8ECA8F006D0010EE7EC40F0EE
:105A5000050EB8ECA8F00001C6A907D00C0E1EEC8C
:105A600041F0050EB8ECA8F006D00C0EE7EC40F0C3
:105A7000050EB8ECA8F00001C6AB07D0170E1EEC5F
:105A800041F0050EB8ECA8F006D0170EE7EC40F098
:105A9000050EB8ECA8F0020E77ECB8F00001C6A134
:105AA00005D0F6EC42F0C3ECB3F004D0000E186A57
:105AB000C3ECB3F0030E77ECB8F00001C6A105D03B
:105AC000FFEC42F0C3ECB3F004D0000E186AC3EC54
:105AD000B3F0040E77ECB8F00001C6A105D01BECC2
:105AE00043F0C3ECB3F004D0000E186AC3ECB3F07B
:105AF000020E77ECB8F00001C6A305D00EEC43F01F
:105B0000C3ECB3F004D0186A0B0EC3ECB3F0030E71
:105B100077ECB8F00001C6A305D018EC43F0C3EC55
:105B2000B3F004D0186A0B0EC3ECB3F0040E77EC9C
:105B3000B8F00001C6A305D0EDEC42F0C3ECB3F021
:105B400004D0186A0B0EC3ECB3F0020E77ECB8F079
:105B50000001C6A505D002EC43F0C3ECB3F004D0BD
:105B6000186A160EC3ECB3F0030E77ECB8F0000120
:105B7000C6A505D00BEC43F0C3ECB3F004D0186A13
:105B8000160EC3ECB3F0040E77ECB8F00001C6A516
:105B900005D01EEC43F0C3ECB3F004D0186A160E27
:105BA000C3ECB3F0050E77ECB8F00001C6A705D042
:105BB000F6EC42F0C3ECB3F004D0000E186AC3EC6C
:105BC000B3F0060E77ECB8F00001C6A705D0FFECE5
:105BD00042F0C3ECB3F004D0000E186AC3ECB3F08B
:105BE000070E77ECB8F00001C6A705D01BEC43F018
:105BF000C3ECB3F004D0000E186AC3ECB3F0050E8A
:105C000077ECB8F00001C6A905D00EEC43F0C3EC68
:105C1000B3F004D0186A0B0EC3ECB3F0060E77ECA9
:105C2000B8F00001C6A905D018EC43F0C3ECB3F0FE
:105C300004D0186A0B0EC3ECB3F0070E77ECB8F083
:105C40000001C6A905D0EDEC42F0C3ECB3F004D0DE
:105C5000186A0B0EC3ECB3F0050E77ECB8F0000138
:105C6000C6AB05D002EC43F0C3ECB3F004D0186A25
:105C7000160EC3ECB3F0060E77ECB8F00001C6AB1D
:105C800005D00BEC43F0C3ECB3F004D0186A160E49
:105C9000C3ECB3F0070E77ECB8F00001C6AB05D04B
:105CA0001EEC43F0C3ECB3F004D0186A160EC3EC3C
:105CB000B3F0020E77ECB8F00001C6A105D0F9EC04
:105CC00042F0C3ECB3F004D0186A090EC3ECB3F091
:105CD000030E77ECB8F00001C6A105D0F0EC42F05D
:105CE000C3ECB3F004D0186A090EC3ECB3F0040E91
:105CF00077ECB8F00001C6A105D0090E186EC3EC10
:105D0000B3F004D0186A090EC3ECB3F0020E77ECBE
:105D1000B8F00001C6A305D0E7EC42F0C3ECB3F045
:105D200004D0186A140EC3ECB3F0030E77ECB8F08D
:105D30000001C6A305D008EC43F0C3ECB3F004D0D7
:105D4000186A140EC3ECB3F0040E77ECB8F000013F
:105D5000C6A305D0FCEC42F0C3ECB3F004D0186A43
:105D6000140EC3ECB3F0020E77ECB8F00001C6A538
:105D700005D0EAEC42F0C3ECB3F004D0186A1F0E71
:105D8000C3ECB3F0030E77ECB8F00001C6A505D064
:105D900011EC43F0C3ECB3F004D0186A1F0EC3EC4F
:105DA000B3F0040E77ECB8F00001C6A505D005EC01
:105DB00043F0C3ECB3F004D0186A1F0EC3ECB3F089
:105DC000050E77ECB8F00001C6A705D0F9EC42F05B
:105DD000C3ECB3F004D0186A090EC3ECB3F0060E9E
:105DE00077ECB8F00001C6A705D0F0EC42F0C3ECA8
:105DF000B3F004D0186A090EC3ECB3F0070E77ECC9
:105E0000B8F00001C6A705D0090E186EC3ECB3F0B8
:105E100004D0186A090EC3ECB3F0050E77ECB8F0A5
:105E20000001C6A905D0E7EC42F0C3ECB3F004D002
:105E3000186A140EC3ECB3F0060E77ECB8F000014C
:105E4000C6A905D008EC43F0C3ECB3F004D0186A3F
:105E5000140EC3ECB3F0070E77ECB8F00001C6A93E
:105E600005D0FCEC42F0C3ECB3F004D0186A140E79
:105E7000C3ECB3F0050E77ECB8F00001C6AB05D06B
:105E8000EAEC42F0C3ECB3F004D0186A1F0EC3EC86
:105E9000B3F0060E77ECB8F00001C6AB05D011ECFC
:105EA00043F0C3ECB3F004D0186A1F0EC3ECB3F098
:105EB000070E77ECB8F00001C6AB05D005EC43F057
:105EC000C3ECB3F004D0186A1F0EC3ECB3F0010E9C
:105ED0004D6E0001C6A103D00101E18D02D0010188
:105EE000E19D0001FF513DEC3FF0DFA040D06AECA6
:105EF00040F01FEC42F0DBAE30D0020E12EC41F06D
:105F0000030E7AECA2F000016AEC40F04CEC3FF09A
