:020000040000FA
:1000000015EF00F0FFFFFFFF4C8299ED05F0FFFFB9
:10001000FFFFFFFFFFFFFFFF4C80E0CF29F00CEF59
:1000200008F029C0E0FF4C90100058EF05F0700E6A
:10003000D36E400E9B6EF00E956E836EF19E9368AC
:10004000816898DA64EC05F04B6E81BA04D083685D
:1000500081BA206A07D04B0403E0020E4B1802E17C
:10006000010E206E9568946AFD0E936EFE0E986EDA
:100070008192C00E2A6E0F0E2B6E2C6A2D6A64ECD4
:1000800005F04B6E030E4B1818E0C00E2A6E0F0ED3
:100090002B6E2C6A2D6A48EC05F0030E2B6EE80ED1
:1000A0002A6E6FEC05F0C00E2A6E0F0E2B6E2C6AB6
:1000B0002D6A030E2E6E23EC05F0200407E19368F1
:1000C00094689568986800EF08F0F9D7100EAF6E45
:1000D0007E96AC84AC98AC9CAB9C9F9A9F981E0E6D
:1000E000C86E280EC66E2CDA020EE3EC03F0AB8E5F
:1000F0007AEC05F0C26A0F0EC16EA10EC06ECF0E73
:10010000956E966A030E976ECB0E946EB59C070E95
:10011000B46E36EC05F03EEC04F02F6A0A0E2E6E3B
:1001200031EC03F0000E17EC04F01C0E856E010E8E
:10013000216E020EA2EC04F09EAA36D033DAAECFC6
:10014000DFFF9E9A27D02EDAAB0EDE1802E1252AB9
:100150002BD0256A29D0AB0E011802E1010E276EC3
:10016000256A010E246E150E246401D01DD0245082
:10017000010FD96EDA6A2450010FE16EE26AE7508E
:10018000376E2450375CDF6E242AEDD7150E2564B8
:10019000DED7DFD72550376E386A3850F7E1375051
:1001A000D2E0150AD8E0F2D7270401E0BCD18AECEE
:1001B00005F03F6A406A0250050F416E010EE7D913
:1001C0000AD046507EEC04F03F26000E4022462A1C
:1001D00047224822492241C037F0386A396A3A6AD0
:1001E0003750465C38504758395048583A5049586B
:1001F000E8E33FC028F0286C4150010FD96EDA6A5D
:100200002850DE1801E172D185D1210408E198D986
:100210000A0EE3EC03F00F0ED7EC02F082D104508B
:1002200003C037F0386A396A3A6A39C03AF038C0E0
:1002300039F037C038F0376A37243B6E000E38206B
:100240003C6E000E39203D6E000E3A203E6E185076
:100250003B241C6E19503C201D6E1A503D201E6E12
:100260001B503E201F6E1F501E1003E1100E1D5C20
:1002700009E31F5007E1210E1C5C7F0E1D58010E83
:100280001E5816E31F501E100BE1100E1D5C08E2F5
:1002900060D9020EAFEC03F0140ED7EC02F041D19E
:1002A00058D9030EAFEC03F0150ED7EC02F039D19C
:1002B0001CC037F03F0E37160AE11CC02AF01DC0E3
:1002C0002BF01EC02CF01FC02DF048EC05F01CC018
:1002D0002AF01DC02BF01EC02CF01FC02DF0050E03
:1002E0002E6E41C02FF063EC04F0000E1C242A6E29
:1002F000F00E1D202B6EFF0E1E202C6EFF0E1F20F9
:100300002D6ED70E2E6E050E2F6E306A316A74EC8C
:1003100003F02A50226E225094EC05F0030E8FEC6D
:1003200005F0FF0EF6EC04F04A82070E2326246A3D
:10033000426A436A446A456A5AD042501C242A6E73
:1003400043501D202B6E44501E202C6E45501F2004
:100350002D6E64EC05F01BD94250060FD96EDA6A97
:10036000DF50376E19D94650381809E1475039180F
:1003700006E148503A1803E149503B1803E0010EEA
:10038000246E30D023504624376E000E4720386E3E
:10039000000E4820396E000E49203A6E4250372434
:1003A000466E43503820476E44503920486E4550C1
:1003B0003A20496E810E461222504224376E000EBA
:1003C0004320386E000E4420396E000E45203A6EF0
:1003D0003A503910381006E13E0E375C03E24650C1
:1003E000F6EC04F0422A000E43224422452241C08A
:1003F00037F0FB0E3726D0D83850425C395043587E
:100400003A5044583B50455898E3245005E18284C3
:100410000A0ED7EC02F085D093D8040EE3EC03F07B
:100420000D0ED7EC02F07DD0C00E2A6E7F0E2B6E23
:10043000010E2C6E2D6A48EC05F094D82E6E23EC3C
:1004400005F04668476A486A496A94D864EC05F042
:100450009ED846044710481049100AE14A924A9033
:100460006FD8050EE3EC03F00B0ED7EC02F059D079
:1004700067D8040EE3EC03F0160ED7EC02F051D06F
:100480005FD8060EE3EC03F0000E17EC04F0030E49
:1004900083EC04F077D8216A110ED7EC02F041D03A
:1004A0004FD8070EE3EC03F0000E17EC04F0030E38
:1004B00083EC04F067D8100ED7EC02F032D00704BA
:1004C00008E1000E186E196E010E1A6E000E1B6EFA
:1004D00001D058D80E0ED7EC02F023D031D8090E37
:1004E000E3EC03F0120ED7EC02F01BD00550376E90
:1004F000386A3850F3E1375001E187D6010A94E0B9
:10050000030ABEE0010ACCE0070AD9E0010A01E1D2
:100510008ED5E4D715D80C0EE3EC03F00C0ED7EC17
:1005200002F07AEC05F04AB24AB006D61BD82E6A21
:1005300023EC05F04AA202D04A80FED54A90FCD5B1
:10054000130E2F6E880E2E6E050E316EDC0E306E81
:10055000DC0C130E2F6E880E2E6E050E316EDC0E27
:10056000306EDC0CC00E2A6E7F0E2B6E010E2C6ED0
:100570002D6A010CC00E2A6E7F0E2B6E010E2C6EA2
:100580002D6A010C186A196A1A6A1B6A1200466EF3
:10059000476A486A496A120037C038F0396A3A6ACD
:1005A0003B6A12002550010FD96EDA6A12002F6ED5
:1005B000AB0E0FEC05F0000E0FEC05F0000E0FEC8B
:1005C00005F0000E0FEC05F02F500FEC05F027D0D2
:1005D000F60E0FEF05F0F50E0FEF05F0F40E0FEF2E
:1005E00005F0F30E0FEF05F0F20E0FEF05F0F10E30
:1005F0000FEF05F0F00E0FEF05F0EF0E0FEF05F027
:10060000EE0E0FEF05F0ED0E0FEF05F0EC0E0FEF15
:1006100005F0EB0E0FEF05F0EA0E0FEF05F02F508F
:100620002D6E2E6A2E50D8A412002D500A0AD0E04A
:10063000010AD1E0070AD2E0010AD3E0030AD4E0BC
:10064000010AD5E01F0AD6E0010AD7E0030AD8E084
:10065000010AD9E0070ADAE0010ADBE0030ADCE07C
:1006600012002E503F08306E2618D8B412003050B9
:10067000265C1BE2838834D86FEC05F0838A30D87F
:100680006FEC05F0839A2CD86FEC05F009D08398B5
:1006900027D86FEC05F0838823D86FEC05F0262A65
:1006A0003050265CF4E3838A1200839819D86FECEB
:1006B00005F0839A15D86FEC05F009D0838810D81F
:1006C0006FEC05F083980CD86FEC05F026062650E9
:1006D000305CF4E3838A04D86FEC05F08388120061
:1006E0002B6A640E2A6E640C326A336A346A356A85
:1006F0002E502F103010311029E0010E366E06D02A
:10070000D8902E362F3630363136362A31AEF8D7DD
:10071000D89032363336343635362E502A5C2F5048
:100720002B5830502C5831502D5809E32E502A5E4A
:100730002F502B5A30502C5A31502D5A3280D8908D
:10074000313230322F322E32362EE2D732C02AF0FA
:1007500033C02BF034C02CF035C02DF01200326EB7
:10076000346A04D026D86FEC05F0342A3450FAE00D
:10077000336A13D0346A04D021D86FEC05F0342AE0
:100780003450FAE08182346A04D018D86FEC05F056
:10079000342A3450FAE08192332A3250335CEAE34F
:1007A000346A04D006D86FEC05F0342A3450FAE0ED
:1007B000120030C02AF031C02BF012002EC02AF0F7
:1007C0002FC02BF01200326E346A04D026D86FECA2
:1007D00005F0342A3450FAE0336A13D0346A04D076
:1007E00021D86FEC05F0342A3450FAE08284346A60
:1007F00004D018D86FEC05F0342A3450FAE0829413
:10080000332A3250335CEAE3346A04D006D86FEC02
:1008100005F0342A3450FAE0120030C02AF031C01A
:100820002BF012002EC02AF02FC02BF01200336ED6
:1008300085501C09856E33C035F00FD035508FECD4
:1008400005F0000E94EC05F0346A000EF6EC04F0AE
:10085000342A3F0E3464F9D7352A070E3564EED7B3
:10086000000E8FEC05F0000E94EC05F002D8C1EFFD
:1008700004F0010E2D6E2E6E2F6E000C839870EC1E
:1008800003F06FEC05F0839A70EC03F06FEC05F069
:100890002E6A838870EC03F06FEC05F0839870EC9F
:1008A00003F06FEC05F02E2A630E2E64F2D7838AD4
:1008B00070EC03F06FEC05F0838870EC03F06FECE4
:1008C00005F0266A12002AC0F6FF2BC0F7FF2CC0E5
:1008D000F8FF050E306E05D0305010D8F56E0D00C3
:1008E000302A2F50305CF8E30A00A68EA69CA6841E
:1008F000550EA76EAA0EA76EA682AA0C010FD96E7E
:10090000DA6ADF5012002E6E080E856E2E508FECC4
:1009100005F0000E94EC05F0FF0EF6EC04F03F0E2F
:1009200094EC05F0FF0EF6EC04F0010E94EC05F0EB
:10093000010E2F6E810EF6EC04F02F2A3E0E2F646E
:10094000F9D73E0C2F6E080E856E040E8FEC05F065
:10095000000E94EC05F02F50F6EC04F03F0E94ECF2
:1009600005F02F50F6EC04F0010E94EC05F0010EAA
:100970002E6E2F50F6EC04F02E2A3E0E2E64F9D780
:100980003E0C306E32C031F02DB002D0859401D0D3
:10099000858431C032F02EB002D0859601D0858694
:1009A00032C031F02FB002D0859801D0858831C097
:1009B00032F03050C00FDDEF04F02C6E010E82ECEF
:1009C00005F0859E010E82EC05F0859C010E82ECFF
:1009D00005F02CC084FF010E82EC05F0858A010E23
:1009E00082EC05F0859A010E82EF05F02C6E010E67
:1009F00082EC05F0859E010E82EC05F0858C010EDF
:100A000082EC05F02CC084FF010E82EC05F0858A93
:100A1000010E82EC05F0859A010E82EF05F02C6E36
:100A2000000E2B6E010E2A6E2CC0ADFF08D02A4A94
:100A30002B2A2B5007E1970E2A5C01E31200ACB27F
:100A40001200F5D712002AC0F6FF2BC0F7FF2CC00A
:100A5000F8FF2EC0F5FF0D000A00A68EA69CA68406
:100A6000550EA76EAA0EA76EA682AA0C856A846A86
:100A70003D0E856E9EEC05F039EC04F0C1EC04F0FF
:100A8000000E94EC05F0000E8FEC05F0869012003D
:100A90002AC0F6FF2BC0F7FF2CC0F8FFA68EA69C3D
:100AA000A684A688550EA76EAA0EA76EA682AA0CCB
:100AB0004A6A00EE01F0280EEE6AE806FDE14C906D
:100AC0004C92000117EF00F02AC0F6FF2BC0F7FF91
:100AD0002CC0F8FF0800F5CF2EF02E5012002C6A23
:100AE0002D6A02D02C4A2D2A2A502C5C2B502D58CE
:100AF000F9E31200276A016A256A829AAC9AAB88E8
:100B00009E9A12002A6E2B6A01D02B2A2A502B5C47
:100B1000FCE31200828AAC8AAB989E9A12002D6E7A
:100B20002D50B80FDDEF04F02D6E2D50400FDDEF8E
:100B300004F0060004EF08F04C9211003F0EDDEFC8
:100B400004F0FFFFFFFFFFFFFFFFFFFFFFFFFFFFBF
:100B5000FFFFFFFFFFFFFFFFFFFFFFFFFFFFFFFFA5
:100B6000FFFFFFFFFFFFFFFFFFFFFFFFFFFFFFFF95
:100B7000FFFFFFFFFFFFFFFFFFFFFFFFFFFFFFFF85
:100B8000FFFFFFFFFFFFFFFFFFFFFFFFFFFFFFFF75
:100FC00003FFFFFFFFFFFFFFFFFFFFFFFFFFFFFF2D
:100FD000FFFFFFFFFFFFFFFFFFFFFFFFFFFFFFFF21
:100FE000FFFFFFFFFFFFFFFFFFFFFFFFFFFFFFFF11
:100FF000FFFFFFFFFFFFFFFFFFFFFFFFFFFFFFFF01
:1010000007EF08F0FF00FF00518260ED86F0A4EFCB
:10101000A9F00030FFFFE7030000000008FF970081
:10102000E70335FFFFE703000014000138E70398EA
:101030000035FFFFE70300000A000138E7039900CD
:1010400035FFFF3200010002000138E7039B003545
:10105000FFFF640005001400023BE7039C0035FF1E
:10106000FFE703000002000138B0009E0035FFFFDB
:10107000E70301000A000143B000A00035FF040AA5
:1010800000000000000138E703A10035FFFF640005
:1010900001003200023BA200D90035FFFF640001CD
:1010A000000A00023BA400A50035FFFFFA00010082
:1010B0001400023BA600A70035FFFF640001000AF0
:1010C00000023BA800A90035FFFF0F27050007001D
:1010D000023BAA00AB003504FFE7030300E703026D
:1010E0003BA800AC0035FFFF0F2703001400023BB4
:1010F000B000AD0020FFFFE703000000000138AEA4
:1011000000AF0035FFFFB4001E0096000140B100A3
:10111000680035FFFFB4001E0096000140B2006871
:101120000036FF04630000000F000238B400B30073
:1011300036FFFFF4010F00AA00013FB500B6003EE4
:10114000FFFF02000000010005FFB700B80036FFF6
:10115000FFE70301008C00023FB500B90035FF0432
:10116000E703000003000238A800640036030459B6
:101170000200005902023BBB00BC0036FFFF6400C6
:1011800001006400013EBD00BE0036FFFF3F0000CD
:10119000001000013EBD00BF0035FFFFE703010066
:1011A00005000138E703C00000FFFF2C010000002C
:1011B0000009FFC100C20020FFFFE803000000009B
:1011C0000241C300C40020FFFF72010000000002C2
:1011D0003DC300C50020FFFFFF000000000009FF25
:1011E000C600C20035FFFFB4001E00B4000140C7B6
:1011F00000680035FF04640000000000013EC700E5
:10120000C90000FFFFFF000000000009FFCA00CB7B
:101210000035030401000000000001FFA800CC001D
:1012200035FF0307000000000011FFCE00E7033583
:10123000FFFFE8030A003200023BB700D00000FFC6
:10124000FF0F2700000A000DFFB700D10000FFFFCD
:10125000FF000000000007FFD200E70335FFFFE7B3
:10126000033200580201407600D40035FF046400C8
:1012700000001E00013E7600D50035FF046300002B
:1012800000010001FFD600D70035FFFF320001004A
:101290000500023B7600A5003EFFFF0100000001B3
:1012A000000EFFBD00D80035FF04640000000F00F1
:1012B000023BDA00D90035FFFFB4001E00A0000198
:1012C00040DA00680035FFFFB4001E0096000140C0
:1012D000E500680035FF04640000000F00023BB227
:1012E00000D9002600010200000000001101DC000E
:1012F000DD0020FFFF0000000000001045DE00DFE1
:101300000020FFFF0000000000001045E000DF00AB
:1013100020FFFF0000000000001045DE00E100207B
:10132000FFFF0000000000001045E000E10020FF8A
:10133000FFFF00000000001043E200DD0020FFFF7F
:10134000FF00000000001043E300DD0035FF0464EF
:101350000000000F00023BB100D90035FF04580225
:1013600000000000023BE500A50035FF046400001A
:10137000000A00013EE600D50000FF00FF00FF006C
:10138000FF000CFFE700E80000FF01FF00FF00FF87
:10139000000CFFE900EA0020FFFF26020000000029
:1013A000023DC300EB003504FF8403320058020104
:1013B000406500D40020FFFFFF000000780301FF1C
:1013C000ED00E70336FFFFE70301005000013FEEA9
:1013D00000EF0035FFFFC80005002800023BF000C9
:1013E000F10000FFFF00000000000007FFDC00E745
:1013F0000300FF040000000000000CFFF200F300F7
:101400003504FFDF030A00DF03023B0501A50020CE
:10141000FFFFC80000000000023CC300F50036FFDB
:10142000FF320001000100023BF600F70031FFFF30
:1014300064000000120008FFF800F90031FFFF64AB
:10144000000000080008FFFA00FB0031FFFF640005
:1014500000001E0008FFFC00F90035FFFF640001DA
:10146000001400023BC700FD0035FFFFE70300004A
:101470001400023BC700FE0000FF02FF00FF00FF58
:10148000000CFFFF00000136FFFF06000100030013
:101490000143B70001013503040100000001000110
:1014A000FF0201E70336FFFF320001000100023BAB
:1014B000F600030135FFFF0F270A002C01023B0451
:1014C00001A50035030401000000000001FF050133
:1014D000060120FFFF00000000000010430701E7A5
:1014E0000320FFFF00000000000010430801E70395
:1014F00000FF03FF00FF00FF000CFF09010A0100CD
:10150000FF06FF00FF00FF000CFF0B010C0136007F
:101510000E03000000030011010D010E0136FF044F
:10152000630000001E0001430D010F0136FF045847
:10153000020A003200023B0D01100100FFFF000013
:101540000000000000FFE703E70335FFFF64000130
:10155000003200023BEC00D90035FFFF64000100BF
:101560003200013EB0001401360006010000000008
:10157000001101B700150100FFFF0000000000008E
:1015800003FF1601170100FFFF0000000000000329
:10159000FF1801170135FFFFE703320090010140FA
:1015A000E600D4003504FFE7030100E7030138B08B
:1015B000001A0100FFFF00000000000009FFDC002E
:1015C0001B0135FF04640000006400013E1C01D5CE
:1015D0000035FF04580200000000023B05011D0118
:1015E0003EFFFF0F270000401F01FF1E011F0136B5
:1015F000FF040A00000001000143F600200135FF4E
:1016000004E70301000100023BA8001D0135FFFFB4
:101610006300010001000238EC00210135FF04E7FE
:10162000030000000002380500640035FFFF64007D
:1016300000001E00013E1101220135FF04E70300F6
:101640000000000238EC00230135FF0463000000B5
:101650000F000238DA003A013610100200000001D3
:101660000011012401250120FFFFE7030000000015
:101670000140C300260120FFFFC800000000000158
:1016800040C300680020FFFF640000000000013E2E
:10169000C300270120FFFF630000000000013EC3DC
:1016A00000280134FFFF630000000000013EE0005D
:1016B00029013EFFFFC8000100080001FF1E012AAA
:1016C0000134FF0401000000000012FF2B012C0177
:1016D00000FFFFE80300000000023E2D017D000036
:1016E000FFFF00000000000000FF2F01300100FF9D
:1016F000050000000000000CFF3101320120FFFF57
:10170000E8030000000001FFDC00330135FFFF6447
:101710000000000A00013EE000340135FFFF6400D4
:1017200000001000013E350134013526250100007E
:1017300000010001FFE000360135FF050800000050
:10174000070011FF3801370135FF050800000008C8
:101750000011FF380139013EFFFF050000000100C4
:10176000011D8C009F0000FFFF0000000000000032
:10177000FFE703E70300FFFFFF000000000007FF93
:101780003B01E7033510070300000003001101BD12
:10179000003E0135FFFF320001000700023BE00080
:1017A0003F0135FFFFB4001E0032000140EC00A2F3
:1017B0000000FFFF00000000000009FF410142019E
:1017C00020FFFFFA0000000000003EE703E70326C9
:1017D000FFFF640000006400013E3501430136FF55
:1017E00004140001000800023B4401A50036FF0478
:1017F00014000000030001424401BA003500080251
:1018000000000002001101A800450100FFFFB40024
:101810001E00320015407F00E70300FF09000000B2
:101820000000000CFF5A015B01361918010000008E
:10183000010001000D000E0036FFFF6300010001F2
:101840000002424801490135000202000000010087
:101850001101B7004A013500040300000001001126
:10186000014801630000FF070000000000000CFFBA
:101870004C014D0120FFFF64000000000001FFE764
:1018800003E70335FFFF630000000000013EE500B1
:101890004E0135FFFF630000000000013EB2004E24
:1018A0000100FF000000000000000BFF500151018B
:1018B00000FFFF0000000000000FFF520130010098
:1018C000FF0000000000000004FF5301540126FF48
:1018D000FF06000100010001FF1E01550126160F41
:1018E00006000100010011011E01560136FFFF64D0
:1018F0000000001E00013EF600D50020FFFF0000A2
:101900000000000000FFE703E70334FFFFFF0000D3
:1019100000000006FFE703E70334FFFFFF000000BD
:10192000000006FFE703E70334FFFFFF00000000AD
:101930000006FFE703E70330FFFFFF0000000000A1
:1019400006FFE703E70330FFFFFF0000000000068B
:10195000FFE703E70330FFFFFF000000000006FF82
:10196000E703E70335FFFFE8030A006400013E6870
:1019700000620135030401000000000001FF5E0168
:10198000610135030401000000010001FF5E0160F8
:101990000135030401000000010001FF5E015F0149
:1019A00036FFFF640001000A0001431E01360000FB
:1019B000FFFF00000000000000FFE703E703360020
:1019C0000C03000000000011018C0057013EFFFFD6
:1019D000060001000100011D8C00580104FFFF07F3
:1019E000000000000014FF810060003503040100C6
:1019F0000000000001FF7C00650000FF08FF000000
:101A00000000000CFF14001B003EFFFFE703010075
:101A10002C01013B8C001C0000FFFFE703000000CD
:101A2000000AFF1A00E7033405000300000000006D
:101A300011011E01150000FFFFFF00000000001350
:101A4000FF1600E70336100D020000000000110130
:101A50001E013C013EFFFF2B0102001400023B1E51
:101A60000117003E001203000000000011008C006E
:101A7000660036FFFF8B0032008B00013E68005984
:101A8000013504FF640000005000013E3D012501C6
:101A900000FFFF00000000000000FF5C015D013559
:101AA000FFFF1E000A000D0002FF48010B0035FF7A
:101AB000FF320000001900013E4801D50035FFFF4C
:101AC0001E000A00140002FF48010C0035FFFF321F
:101AD0000001000A00023B4801A50000FF010000D0
:101AE000000000000BFF4F01E40004FF04010000B0
:101AF00000000012FF2E012C0100FF0A010000006F
:101B000000000CFF63016401EA50EA50E250F25019
:101B100012510A51994CA44CAF4C8E4C9047094B32
:101B200078447844722E302E8A2DAC2DCD2DEE2D9A
:101B30000F2E932E8D3295339734FE32304BE84979
:101B40005E340136B93F433EB54FB54F5352535201
:101B5000C151C1511C4F374FAA3D5B36663D4936D6
:101B6000512E512E62516251BE3ABF39CF3AD0390F
:101B70004632463273417341BA4CA145A740FC40FE
:101B80001C43543ECB3EDA40553D563C653E9A3CA4
:101B9000123C013C7B39583AEE3D7C38643FB840FA
:101BA000BC3CBC3CFA427143763E983EEB40A93EB9
:101BB000C643C6430F3F0F3F443D323E22512251A0
:101BC000F9435F443D443D44E8434E442C442C4497
:101BD0001B441B440A440A44ED3EED3ED743D74321
:101BE000AD2C7D2CB543B54315391539253A683BE5
:101BF0004938C0386340463BAE39AE39D138D13868
:101C0000BD3BCE3B7D377D37053805388A3B8A3B67
:101C1000783CAF38353B27387440573B033A263978
:101C20006D3680447E3680448F368044A0368044B2
:101C3000B1368044C2368044E4368044F536804470
:101C400039378044C13780445A388044E238804470
:101C500059398044473A8044F03B8044A44380444F
:101C6000BE4FBE4FA64898488D381F4A42505A5022
:101C70006A506A507A507A502A502A505250525024
:101C80000A500A506250725022508250F24FF24F66
:101C900071458243F42F9731BB322D32D33D874AB1
:101CA000B42E772FAA337632EA4E1B47602ACE2A0B
:101CB0004A4B2234023BAD3AF338133BE03AE03A68
:101CC00008494E49243B9C3AF239973FDF3B8B3A17
:101CD0001A511A51DE48B049814441459144B144FA
:101CE000D144F144214581466145C144585258527E
:101CF000D145E145DB47BE463146753F8145464A01
:101D00000B430B4352482C4ACD3CCD3C5D525D52B7
:101D10004F4360431F40FD3F0E40EC3FC2485C49CB
:101D200040499449334D8E37044E0E4E184E184E8E
:101D3000B642FE3EA83F203F364E224C082D082DCD
:101D4000203D203D423D423D533D533D594F594F6B
:101D5000B54DB54DE24F254FEA4F2E4F0251494F39
:101D6000905189517F4FAC4F814AF84BE64C8A52D3
:101D70000A4C16494A4EE64B764F124DD54ADA4B7D
:101D80009A50524F0A2DDC2C914617489F47893CA8
:101D900005351735494D494D6A4DFE4B9650A54BBB
:101DA000D651EB511D4DCE4BD02E164BD250DA50A2
:101DB000D651EB5182516C528A50B84ED0489E4B4E
:101DC000EB46DC467A4BBF3E6752C851544E5B4FE0
:101DD000514111463030372F793B28372A52005273
:101DE000864BEA47864ECD40CC4E4A34AF46A0469D
:101DF000544D754D6A516A51A551074D6A516A514A
:101E00005E4E804DA34F9A4F7A4A244945478243FC
:101E100091456048EF4A164C5F4DB64B884FAA502B
:101E2000483938383A4C36479751C54CD52FF62E9D
:101E30003145614651450145DD301431883D6241EF
:101E4000E24AC84A80448044E6334931113D223D8C
:101E50000439143AF145F1453B35A735DF33724972
:101E60003A41A43D8A48904E1852644F7135EF357F
:101E70003739E337D02E0C52924BFC4C70447044EF
:101E8000CF51B250534A6E489C499C491E521E5233
:101E9000A542A54240414041B741B7418B4D8C2FEF
:101EA0006A4DFE4B5240333D9640103EDB3FCA3FE9
:101EB0001D42EA41E04E964D51465447BD47AE475C
:101EC0006252CF2FDB4C12522F41993D6E4B6D4F1A
:101ED000BB3DAB3C3F425042604ACD46284DCA42D2
:101EE000D64EA250F14CA14A1A5002504250FA4F1D
:101EF00012503A50225082504A50325092509E4BCB
:101F0000E8324D308540C9402E420C421432B62F83
:101F1000FA46B448684EC24BBE49624BCC3DDD3DEB
:101F20001230D52E864986490848F947453C673C1A
:101F3000C841FB4130404140844195414E52D63F1B
:101F400063472A33CC47B031A432172FD336313F01
:101F50004146863FF3342935253680338434AE4EEE
:101F6000533F3249E1441145EF3C003D7C46124766
:101F7000404E724E394A404F7C4E2C4E3548234BD2
:101F8000C250CA50A14DF649FC4A0D418730572F27
:101F90001E413E43D04CF24BDD5136520652245284
:101FA000914F0C47C931FB315E32E231464CB3519F
:101FB0002E4C2E4CEC48FA481A2C4C2C2146FF3D56
:101FC000C24EC24ECC49DA493B2BE52B423FDC3EA8
:101FD0009B3B9B3BE451E451564B6A49BA50BA5182
:101FE0002F31FA33944A3E4D78497849AA4BF44E42
:101FF000972F6A30DE3C13365C415F4FA44E724728
:10200000AA343634D232B1459E519E519E389E3804
:102010006A396A3914330E34363A93432747BA3E45
:10202000873E6D4A814AF84BB037A14416389F3736
:10203000AE4A124A224E2531E942D84261427242EA
:10204000D23337367C48C145F4376C3783429442EB
:102050009A4EBB4A7D31804463318044F251FA503C
:10206000AC513052BE337134612D362DC1306B33DB
:10207000AC3B773DE139F13A693A8C39772BAE2B9D
:10208000A24901468147C742714618472648094779
:10209000F9305633213E2D43D941A64100000000BE
:1020A00000000000000000002301020D00000000FD
:1020B00000000000000023010203040D00000000E6
:1020C000000000002301020E05065F5A0000000018
:1020D00000002301020E050603045F5A0000000001
:1020E0002301071A0D00000000000000000023017A
:1020F0000206071A0D000000000000002301671609
:102100000000000000000000000023010206071A82
:102110000D00000000000000233132333451523EE4
:102120007984ACAB000023265D7E31323334353602
:102130005C7984000C0A3A000000000000000000F6
:1021400000000BA2A1A0BA000000000000000000E7
:102150002B6B8E00000000000000000000003041EA
:102160003B00000000000000000000005556573BF7
:10217000000000000000000000003F4B00000000D5
:10218000000000000000000015134B0000000000DC
:10219000000000000000145B254C4B000000000014
:1021A00000000000858664454E974B00000000004B
:1021B0000000371053000000000000000000000085
:1021C000382E9053000000000000000000002F1186
:1021D0009153000000000000000000002C2D53006F
:1021E000000000000000000000004D420000000060
:1021F00000000000000000004F420000000000004E
:102200000000000000004350624200000000000097
:1022100000000000126A4200000000000000000000
:1022200000008DB4B6B5B742000000000000000009
:10223000B4B6B5B742000000000000000000282A34
:1022400027750000000000000000000039095E75DD
:10225000000000000000000000003D7500000000CC
:102260000000000000000000201F494A5400000048
:1022700000000000000078778AB19F540000000041
:10228000000000007054000000000000000000008A
:10229000000080540000000000000000000000006A
:1022A000815966540000000000000000000018176B
:1022B000198E000000000000000000007B7A8E00F4
:1022C000000000000000000000008C248E000000D0
:1022D0000000000000000000407F8E0000000000B1
:1022E000000000000000B32B6B145B8D6964AE9599
:1022F00096A52300999A000000000000000000004D
:102300000000AE959663AF71A3AD94A900000000E4
:10231000A5AA7CA6B0A900000000000000006BA9DF
:1023200000000000000000000000000069A900009B
:10233000000000000000000000001D3C89000000BB
:1023400000000000000000004489000000000000C0
:102350000000000000006E6FB28900000000000065
:10236000000000001C8900000000000000000000C8
:1023700000006C6D890000000000000000000000FB
:1023800026890000000000000000000000000D167B
:1023900022BA000000000000000000000000000061
:1023A0000000000000000000000065BA000000000E
:1023B00000000000000000006187BA00000000007B
:1023C00000000000000000000000000000004E00BF
:1023D000000000030003000014367F3614000205DD
:1023E00002000000231308646200364955225000A1
:1023F000000503000000001C224100000041221CD7
:10240000000014083E08140008083E0808001030B8
:102410007F30100008080808080000606000000015
:102420002010080402003E4141413E0000027F00AE
:1024300000007149494946004149494936000708A9
:1024400008087F002745454539003C4A4949300086
:1024500001017905030036494949360006494929F1
:102460001E000036360000000077770000000814D8
:102470002241000014141414140000412214080016
:102480000201590502001F0E2470F8007E1111117F
:102490007E00417F494936003E4141412200417F53
:1024A00041413E007F49494941007F090909010036
:1024B0003E4141493A007F0808087F0000417F41C2
:1024C00000002040413F01007F08142241007F406E
:1024D000404040007F0204027F007F0408107F001C
:1024E0003E4141413E007F09090906003E4151211C
:1024F0005E007F0919294600264949493200010139
:102500007F0101003F4040403F001F2040201F004E
:102510007F2018207F0063140814630003047804EC
:10252000030061514945430004067F060400000092
:102530000000000044445F4444007E117F49410094
:10254000C0C0C0C0C0C024547854580058342C2493
:102550001A0078141514780000001C1C00000004F8
:10256000080E00080C080C00080D03070008081CE2
:102570001C001C1C1C1C001C1C08080005010B086E
:102580000009080908000A0806020004081C0900DE
:10259000081C081C00081C0808001C091C09001C59
:1025A000090408000908181F001C1C111100121250
:1025B0001C1C00080C0808001D1C1C1C001C1C1CFA
:1025C0000F001B19080C001C1C0806001A21090822
:1025D000001C1C1C11001C121C1C00080C1E1700E7
:1025E000090813080014080908000808080C000866
:1025F000061C1C00101C1A0500061C1C1C00080CE4
:102600000815000816080C0007081C1C001C001BFD
:1026100006001C1C1C00000808090800181F021CEA
:10262000000E1C0C1C000C1C0C1C001C1C1C0400B0
:102630001C201C1C001C1C101C001C081C0800007A
:10264000000000000003030601040407010404075E
:10265000020505080004090A04040C0A04040C0A13
:1026600004040D0B040000030306130F0F0E1410D7
:10267000101211050515000003030604170F0E04C0
:10268000181016020505080001040407190F0F1A97
:102690002A10101B04040407001C03031D190F0F4C
:1026A0002B2A10101602050508000003031F200F37
:1026B0000F2B211010160205050800220303250424
:1026C000242326042C2704042C28040000030306DA
:1026D000190F0F0E14101016020505080000030351
:1026E00006190F0F1A2A10101B2905050800008073
:1026F000C0E0F0F0E0C080000F070301000001031C
:10270000070FF8FCFEFFFFFFFFFEFCF8FFFF7F3F17
:102710001F1F3F7FFFFFFFFFFFFFFF0000FFFFFFC7
:1027200080C0FFFFFF0103FFFFFFFFFFFF0000FF6F
:10273000FFFFC080FFFFFF030180C0E0F0F0F0F07A
:10274000E0C080F0F0F0F0F00F0F0F0F0FF0F0FF8F
:10275000FFFF0F0FFFFFFFFFFFFFF0F0FFFFFF0F77
:102760000FFFFFFFFCF8F8FCFFFFFFFFFFFF3F1F1D
:102770001F3FFFFFFFF0F8FCFEFF00000000000F0E
:102780000F0703010F1F3F7FFFFF7F3F1F0F010355
:10279000070F0FFFFEFCF8F085866E730000000047
:1027A0001F21200000000000716D6F00000000007C
:1027B0001415161718191A001FDAB4CD00000000FE
:1027C00044706D1D3C1C838F2B2C0000000000000A
:1027D00004939495000000001F6C6B000000000043
:1027E000716D6F000000000000000000000000009C
:1027F00000000000000000007182838400000000DF
:1028000004888900000000001F8A8B0F0000000070
:102810008D8D8E8F90919200939495000000000012
:1028200000000000000000000708090A0000000086
:10283000000000000000000000FFFFFF000000801B
:10284000C0C0FFFF00000000C08000000000C0E02A
:10285000E0E0E0E0808080808080E0E0E0E0600018
:10286000808080800000FF7F000000000000007F6B
:10287000FFFF7F417F417F007F415F5F5F7F1C41A2
:1028800041411C004E404101390067400001730086
:10289000730100406700390141404E000000000014
:1028A0000000000000000000530CBA4B753B008E86
:1028B000895530A93A003F151442853A0037382F20
:1028C0002C543A004D4F43128D4B0028393DFFFFE9
:1028D0003A0020788081FF5300187B8C402B3B000E
:1028E000AEA569FFFF3B001D446E1C6C26000B0D5E
:1028F0006165FF3A00206020202020202020202039
:102900002020202020602000202060206020202027
:102910000020202020202020202000000000000097
:1029200000007A3ACB354A375F35D237DD356B3820
:1029300083351737CF34233CB9350637BD349D393D
:102940004D35343C95355B37E1340102FF030A0015
:1029500000FFFFFF0BFF0000544845205748454546
:102960004C20495320444953434F4E4E4543544510
:10297000442046524F4D20204D4F544F5220424547
:10298000434155534520494E5445524E414C2056E3
:102990004F4C54414745202045584345454453201A
:1029A000343520564F4C54212052455354415254F3
:1029B000204D414348494E45205748454E205748F1
:1029C00045454C2049532053544F505045442054C2
:1029D0004F2052452D202020414354495641544513
:1029E00000484A554C4554204552204B4F424C45D7
:1029F0005420465241204D4F544F52454E20464F91
:102A000052444920494E4E56454E44494720535062
:102A1000454E4E494E47204F56455220343520569C
:102A20004F4C542120534C62204D41534B494E454D
:102A30004E204156204F472050622049474A454E7C
:102A4000204E625220484A554C4554205354414E22
:102A500053455320464F52204F4D5354415254003A
:102A60004B4F4E54414B544120464F5248414E44E7
:102A70004C455220464F52204E59204B4F44452E34
:102A8000524150504F52544552412054414C454EB2
:102A9000204E4544414E2E2056454E54205554203C
:102AA00054494D454F5554454E2E20534C622041BC
:102AB00056204F47205062204558204F4720202065
:102AC00050526156204E59204B4F44452E005245DE
:102AD000504F525420444154412042454C4F5720BE
:102AE000544F2052455441494C204445414C455295
:102AF0002E204C45542054494D454F5554205041AB
:102B000053532E20504F57455220455820204F46B2
:102B10004620414E44204F4E20414741494E2E20F1
:102B2000454E544552204E455720434F444546524A
:102B30004F4D204445414C45522E005452594B4B69
:102B40002050524F4720464F52204E595454204651
:102B50004F5253614B2E20202020205452594B4B72
:102B600020454E54455220464F5220622041565334
:102B70004C555454452E005452594B4B2050524FF3
:102B800047204B4E415050454E20464F5220454E17
:102B9000205241534B20204752554E4E494E5354DC
:102BA000494C4C494E472041562045582E00505222
:102BB0004553532050524F4720425554544F4E20B6
:102BC000464F5220515549434B2020202020534549
:102BD000545550204F462054484520424A35303005
:102BE0003045582E00505245535320502D425554D5
:102BF000544F4E20464F522052455452592E2020B9
:102C00002020202020505245535320454E544552F9
:102C100020544F20455849542E00502D4B4E4150C2
:102C200050203D2053454E44204649524D41524587
:102C30002E202020202020202020454E54455220A8
:102C40003D204156534C555454452E00502D42556D
:102C500054544F4E203D2053454E44204649524D3A
:102C6000574152452E20202020202020452D42551E
:102C700054544F4E203D20455849542E0041545441
:102C8000454D50545320544F205245414348204D08
:102C9000414348494E4553202020202020424546AC
:102CA0004F52452044495341424C454400414E5403
:102CB000414C4C20464F5253614B205062206220C1
:102CC0004E62204D41534B494E45522020466152A1
:102CD000204445414B544956455254004D494E49B4
:102CE0004D554D20414D4F554E54204F46204D419E
:102CF0004348494E4553204B45505420494E2043AC
:102D0000415443482041524541004D494E494D559B
:102D10004D20414E54414C4C204D41534B494E4562
:102D2000522049202020202020204E4150504F4D3D
:102D30005262444554004D4158494D554D20414D36
:102D40004F554E54204F46204D414348494E455320
:102D50002020202020204841554C494E47205550E6
:102D6000004D414B53494D554D20414E54414C4C23
:102D700020555048414C414E4445202020202020E1
:102D8000204D41534B494E4552004E415050283240
:102D90002E48615929202020202020204A554B53BD
:102DA00028332E4C415629202020200043415443F3
:102DB0004828322E484947482920202020204A49C7
:102DC0004728332E4C4F572920202020004E4150B9
:102DD0005028332E4C4156292020202020204A55AF
:102DE0004B5328322E48615929202020200043418E
:102DF00054434828332E4C4F572920202020202090
:102E00004A494728322E4849474829202020004E69
:102E100041505028342E4C415645535445292020CA
:102E20004A554B5328312E486159534554292000A7
:102E3000434154434828312E484947484553542973
:102E400020204A494728342E4C4F574553542920B7
:102E50000020203020202053455249414C2042552B
:102E60004646455220494E464F20202020202037FC
:102E700020004E41505028312E4861595354452965
:102E80002020204A554B5328342E4C41564553544C
:102E9000452900434154434828342E4C4F5753454D
:102EA00054292020204A494728312E48494748457F
:102EB000535429005052494F5249544552494E47A4
:102EC000204156204A554B53204B4F4E54524120DF
:102ED0004E415050004155544F4D41544943414C8F
:102EE0004C59205245534554204C494E4520434FA0
:102EF000554E544552004143544956415445532080
:102F00005748454E2057454947485420474F455359
:102F10002042454C4F57005041555345204245549F
:102F20005745454E20424545505320415420535566
:102F300052464143452E004D4F544F5220534F4669
:102F40005453544F5020544F20484F4F4B494E47F5
:102F5000205A4F4E452E00574845454C204C415075
:102F600053204245464F5245204D4F544F52205317
:102F700054415254532E005052494F5249545920F3
:102F80004A4947204D4F444520565320434154431E
:102F900048204D4F4445004D4F544F52204D594B02
:102FA00053544F50204D4F54204E554C4C50554E7D
:102FB0004B5445542E004E554D424552204F46200D
:102FC0004D41474E45545320494E205448452057C3
:102FD0004845454C00414B495645524553204E62A9
:102FE000522056454B542046414C4C455220554E9C
:102FF000444552004C6253204D4F544F52204E6274
:10300000522044454E2045522053544F5050455471
:103010002E004E554C4C5354494C4C2054454C4C6E
:103020004552454E204155544F4D415449534B0054
:103030004D4F544F52204D594B53544F50502054E4
:103040004F2048454B4C45534F4E452E004143546D
:103050004956415445204146544552204D4F544F06
:1030600052205354415254532E004D4F544F52202E
:10307000534F465453544F5020544F205A45524FAB
:10308000504F494E542E00414E54414C4C204F4D10
:10309000445220466152204D4F544F5220535441C8
:1030A00052542E0053455249414C20434F4D4D55EB
:1030B0004E49434154494F4E204255464645522EB3
:1030C000004D414B532048415354494748455420F3
:1030D00046494E4A5553544552494E47004E625256
:1030E0002046415254534252454D532045522041AF
:1030F0004B54495645525453004D494E2048415374
:103100005449474845542046494E4A555354455220
:10311000494E47005748454E2053504545442042AC
:1031200052414B4520414354495641544553004276
:10313000455354454D4D4552204D4F544F52454EE9
:103140005320535459524B450054494D4520424554
:10315000464F5245205348494654494E4720464F12
:103160004E54004B4F4D4D554E494B4154494F4ED7
:10317000202D20494E42554646455254004B4F4D56
:103180004D554E494B4154494F4E202D20555442E8
:10319000554646455254004C4F434B204D4F544FDB
:1031A00052205748454E2053544F505045442E000E
:1031B0004E554D424552204F4620424545502041F4
:1031C000542043415443482E0046554B54564552D3
:1031D000444945204E454452452053454E534F5295
:1031E0002E0048554D4944494459202D20555050F2
:1031F00045522053454E534F522E0048554D494499
:10320000495459202D204C4F5745522053454E5379
:103210004F522E00414E54414C4C204D41474E459B
:10322000544552204920484A554C4554005748457A
:103230004E20574845454C2049532050554C4C454D
:1032400044204F55540020312020203220202033AC
:1032500020202034202020352020203620004655F4
:103260004B545645524449452061565245205345DA
:103270004E534F522E0028434F4E54524F4C4C4504
:103280004420425920424A3530303029004C6253A4
:103290004546414B544F5220535441525456455287
:1032A00044494500504155534520564544204E550C
:1032B0004C4C204F47204E41505000485649532017
:1032C000484A554C4554205452454B4B4553205584
:1032D000540053544F505054494420464F52204DAF
:1032E0004F544F52454E2E005449442045465445B4
:1032F00052204D4F544F5253544152542E004D4181
:1033000058494D55494D20504F574552204641434D
:10331000544F52004B4F42424C494E472D424F4F63
:1033200053542046414B544F52005748454E20506D
:1033300052455353494E4720425554544F4E530023
:103340004D554C5449204C414E475541474520531B
:103350004554555021004D494E494D554D2053502F
:103360004545442054554E494E47004D4158494D1E
:10337000554D2053504545442054554E494E470025
:103380004D4158204445505448204841554C494EE1
:1033900047205550004D494E494D554D20504F57EF
:1033A000455220464143544F5200285354595253DA
:1033B000204156204D41534B494E454E2900534123
:1033C0004D41524245494420564544204E415050BB
:1033D0002E00454B53545241204D4F544F522053D1
:1033E0005459524B450054494420494E4E414E20B9
:1033F000464F4E54204259544500444543494445A4
:1034000053204D4F544F5220504F57455200434C7C
:10341000555443482D424F4F535420464143544F37
:10342000520043484F4F53454E204C414E47554163
:1034300047452049530053484F572053544154594E
:10344000532053594D424F4C5300554E4954204F31
:1034500046204D4541535552454D454E54004D4F24
:1034600044454C4C2847454E45524154494F4E29FE
:1034700000434154434820434F4F50455241544923
:103480004F4E2E005245544E494E47202D204C4958
:103490004E5554544147004C62534546414B544F9E
:1034A0005220454E44454C49470056495345205308
:1034B00054415455532053594D424F4C002D5452B2
:1034C0004F4C4C494E472D20202020202020002DFD
:1034D0004D41434B4552454C2D202020202020209B
:1034E000002D42454C494D454E592D20202020208D
:1034F0002020004F56414E20445942444520202070
:1035000020202020004D4F544F522046415254203D
:10351000202020202020004D4F544F522053504552
:1035200045442020202020200041424F5645204481
:1035300045505448202020202020004D414B53204E
:10354000484A554C4641525420202020002D4649DF
:1035500053482046494E44494E472D202020002DF7
:10356000535445502046495348494E472D2020206A
:10357000004D4F544F52204D594B535441525420FB
:103580002020002D424F54544F4D202B20535445A2
:10359000502D2020002D52455441494C4552204D7C
:1035A000454E552D2020004D415820574845454C4B
:1035B0002053504545442020002D4D41434B45525A
:1035C000454C202B204A49472D20002D4E4F524D6F
:1035D000414C2046495348494E472D20002D424F2B
:1035E00054544F4D2046495348494E472D20004DD5
:1035F0004F544F522053544152542054494D45206A
:10360000004D4F44454C2847454E45524154494F83
:103610004E290053455249414C204E554D4245528A
:1036200020524334004D414B534459424445204FAE
:10363000505044524147004558545241204D4F5438
:103640004F5220504F574552004C494E452050553F
:103650004C4C53204F5554204259004E4554572E40
:1036600020434F4F502E20484F4F4B5A005B202095
:103670002020202020202020202020202000205B2F
:10368000202020202020202020202020202000205A
:10369000205B20202020202020202020202020000F
:1036A0002020205B202020202020202020202020DF
:1036B00000202020205B20202020202020202020EF
:1036C000200020202020205B2020202020202020DF
:1036D000202000444F5247494E47202020202020E0
:1036E000202020002020202020205B2020202020BF
:1036F0002020202000202020202020205B202020AF
:103700002020202020002D444F5247494E472D2095
:10371000202020202020002D4D414B52454C4C2D87
:1037200020202020202020004155544F204D4F4480
:103730004520202020202020002020202020202084
:10374000205B20202020202020002D48494C464985
:10375000534B452D202020202020002D42454C4950
:103760004D454E592D202020202020004C4F414413
:1037700020205341564520202020202000202020BA
:1037800020202020204D4D202020202020002020FF
:103790002020202020204E4F2020202020200057B5
:1037A0004845454C204C41505320202020202000EB
:1037B0004C625345204D4F4455532020202020205B
:1037C000002020202020202020205B2020202020DE
:1037D00020002D42554E4E4649534B452D2020206A
:1037E0002020004D414E55414C204D4F4445202056
:1037F0002020200048454E5420204C41475245206F
:103800002020202000202020202020202052504D49
:10381000202020202000414E54414C4C204F4D444C
:103820005220202020200020202020202020205056
:1038300043532020202020004D454D4F5259204D0C
:10384000455353202020202000202020202020200D
:1038500020464F54202020202000202020202020FF
:10386000202020205B2020202020002D42554E4E7D
:10387000202B2048494C2D202020200043414C4C37
:10388000204445414C45522E20202020002020205D
:103890002020202020535445502020202000504C30
:1038A0004541534520454E544552202020200020BC
:1038B000202020202020204C415053202020200078
:1038C0002020202020202020464545542020202054
:1038D000002020202020202020564F4C5420202043
:1038E000200020202020202020202020205B2020BD
:1038F0002020004546544552204F505044524147E5
:1039000020202000205345524945204E554D4D451D
:10391000522020200020202020202020204D45540F
:103920004552202020002020202020202020484F09
:10393000555253202020004D414E55454C4C204DB2
:103940004F445553202020004645494C2049204DE6
:10395000494E4E45542020200020202020202020A9
:1039600020202020205B2020200053455249414C3C
:10397000204E554D424552212020004D41534B4988
:103980004E454E204C6253542120200020202D20F3
:1039900057454C434F4D4521202D2020002D4649B1
:1039A000534B454C45544E494E472D202000202076
:1039B000202020202020414D504552452020004706
:1039C00031204F4C444552204D4F44454C2020005F
:1039D0004732204E45574552204D4F44454C2020FC
:1039E0000054454D5020464152542020532F4E2024
:1039F00020004D4544204B4E415050454E204F50E5
:103A0000202000202020202020202054494D4D41FE
:103A1000522020002053455249414C204E554D42E2
:103A20004552202000202020202020202046414DEB
:103A30004E45522020005056202D20484A554C53C8
:103A400054415254202000202020202020202020DB
:103A5000202020205B2020004D414348494E452036
:103A60004C4F434B4544212000202D2056454C4BC4
:103A70004F4D4D454E21202D20002D56414E4C4995
:103A80004754204649534B452D200020202020201C
:103A9000202044495341424C45442000202020200E
:103AA0002020202020204C415247452000414C57E7
:103AB0004159532041542043415443482000473149
:103AC00020454C445245204D4F44454C4C20004726
:103AD00032204E59455245204D4F44454C4C200014
:103AE0002020202020202020204D454449554D20D5
:103AF0000054454D502053504545442020532F4EEF
:103B00002000414C4C54494420564544204E4150DD
:103B10005020004146544552204841554C454420D0
:103B2000555020002020202020202020202020531D
:103B3000543052200020202020202020205354598F
:103B40004B4B455220002020202020202020534590
:103B5000434F4E445320004D494C4C492D20205397
:103B600045434F4E44532000202020202020202079
:103B7000464154484F4D5320004155544F4D4154F8
:103B80004943204D4F44555320002420202020201D
:103B9000202043454C43495553200020202020201D
:103BA000202020202020205245542000564F4C54E5
:103BB00020535452614D2046554B5420002520205F
:103BC000202020202050524F43454E5420002520D5
:103BD00020202020202050455243454E54200020D4
:103BE000202020202020202020202020555420008C
:103BF00020202020202020202020202020205B208A
:103C000000202020202057524F4E4720434F44454C
:103C100021002020202020204645494C204B4F44A5
:103C20004521002D4D414B52454C4C202B204A55EF
:103C30004B532D002D464F5248414E444C45524D5A
:103C4000454E592D004A554B5320204E415050208F
:103C50004F5050482E00424154544552592052452D
:103C60004D4F56414C2E004A494720204341544372
:103C700048204841554C2E00202020202020202084
:103C80004F4D4452454A4E2E004445505448205210
:103C90004544554354494F4E2E00202020202041BA
:103CA0005420504F57455255502E005A45524F20E0
:103CB0002053454120484F4F4B5A2E0020202020B2
:103CC000202020202020424A353030300020202083
:103CD0002020202049562031392C332C32005345E6
:103CE000524945204E554D4D455220524334004EC9
:103CF0004F4C4C4120524547202B204B4F443F0016
:103D0000434C454152205245472B434F4445533F76
:103D100000202020204749564152453A202041208A
:103D200042002020202053454E534F523A2020413C
:103D30002042004D4F544F5220504155534520438F
:103D40004154430020202020202052455645525304
:103D50004552414400424154544552492055544B28
:103D60004F424C4544004C494E452044524153205B
:103D70005554204D454400564F4C54204355525203
:103D80002E2048554D49440020202020202020206E
:103D90002020414C4C544944004452414720434167
:103DA000544348204252414B45004E4554562E2024
:103DB00053414D202048454B4C45004E554C4C201E
:103DC0002056414E4E2048454B4C450053544F50D1
:103DD00020492048454B4C45534F4E450053544FC6
:103DE0005020494E20484F4F4B5A4F4E45005249A4
:103DF0004E4720464F5248414E444C415245005395
:103E0000454E44494E47204649524D574152450080
:103E1000574845454C204252414B45204D4F524555
:103E2000004F50202020204E45442020205649534A
:103E30004500202020202020202020524556455299
:103E40005345004C4F43414C20414E442052454D78
:103E50004F544500202020202020202020202053C7
:103E60004C4156450020202020202056454420501B
:103E700062534C41470020204546544552204A5544
:103E80004B5344524147004252454D532052454402
:103E900055534552494E47004146544552204A49E0
:103EA00047204C454E475448002020202020202009
:103EB0002020202020424F54480053484F57204391
:103EC000415443482044455054480020202020209D
:103ED000202020202020414C445249005350454589
:103EE0004420444550544820484F4F4B00484661B9
:103EF0007274204163634B2042726D734B0020202B
:103F00002020202020202020204C4F43414C002006
:103F10002020202020202020204E4F524D414C00B8
:103F2000202020202020202045585445524E414C2E
:103F3000005350414E495348204D41434B45524553
:103F40004C00464152545320445942444520484570
:103F50004B4C00464F524D4154455241204545502F
:103F6000524F4D00202020202020414E565E4E44CE
:103F70004152454E004D494E20535045454420572F
:103F8000495448494E004445505448204452414702
:103F9000202D204D494E00205553494E4720555065
:103FA00020425554544F4E00202020202020202015
:103FB00020454B535445524E004C4F4B414C5420DE
:103FC0004F472045585445524E00444953502020F5
:103FD000494E464F20204245455000444953502009
:103FE0002020494E464F20205049500020202020BC
:103FF00041534B20414E442048454C500020202046
:104000002041534B20464F522048454C5000202021
:104010002053506152204F4720484A454C500020C1
:10402000205350615220464F5220484A454C500080
:10403000534E55525220505245462E2053544F5005
:10404000004C2D4D45535320505245462053544F5C
:1040500050004D4F544F52205041555345204E4132
:10406000505000202020202020202053454B554E2A
:10407000444552004D494C4C492D202053454B5549
:104080004E4445520044494D204E594C4F4E205409
:10409000454C4C455200484A554C20204252454D13
:1040A0005320204D45520020202020202020204D4C
:1040B00041534B494E4552002020202020202020F3
:1040C00020202020555345520044494D204C494E54
:1040D0004520434F554E544552002020202020209B
:1040E00020202020204E4556455200414C4C54493A
:1040F00044205062204E4544545552002020202038
:10410000202020204D414348494E4553004E554DF7
:10411000424552204F462050554C53455300445978
:10412000424445534C5552202D204D414B53005392
:104130004C5552204E41505020204252454D530084
:104140004E554D422E424A3533205354415254531A
:10415000004F505048414C4E494E47204D4F44551A
:10416000530020202020202020202020414C574197
:1041700059530020202020202020202020202020F3
:104180005245540048454B4C532E202020202020DF
:104190002052455400484F4F4B5A2E2020202020BB
:1041A000202052455400524553544152542020205F
:1041B0002020205245540045582020202D2D2D2D03
:1041C00020202020524554004D414E552E204D4573
:1041D00052202020205245540062544552535441ED
:1041E00052542020202052455400434F4445202063
:1041F0004D4F5245202020524554004D414E552EE2
:10420000204D4F52452020205245540053544F50CA
:104210002D502E205250202020524554004B4F4408
:10422000452020204D455220202052455400535413
:104230004F502D502E205056202020524554004DD6
:10424000594B53542E204C62534520205245540064
:10425000534F4654532E204C4F434B20205245542D
:104260000056495345204D454E5945522020524550
:10427000540053484F5720204D454E55532020524F
:1042800045540046414252494B4B2050524F472023
:1042900052455400464143544F52592050524F47C3
:1042A00020524554004E554D422E534552562E2015
:1042B000524553455400202020202020202020203B
:1042C0004C4F4B414C54004259204D4F544F5220BB
:1042D00043555252454E54004449535020202042E9
:1042E00041522020464F4E540044495350205354CD
:1042F0004F4C504520464F4E540020202020202077
:104300002056454420535441525400202020202060
:104310002020495631392D4849535400202020206F
:104320002020202020202020534C41560055502092
:104330002020444F574E20202053484F57004445DB
:104340005054482044524147202D204D41580020D0
:1043500020484A454C5020414E4452452045580083
:1043600020202048454C50204F5448455220455865
:10437000002020204154205354415254204F4E4C91
:1043800059004C4F5720424F41542042415454450C
:104390005259005245564552534520504F4C4152B8
:1043A0004954590020202020202020202020202097
:1043B0002020205B0048757675646C6F6F70737396
:1043C0006E757272610020202020202042617220D0
:1043D0003272616469670020202020416363627249
:1043E000656D736B6F6D70002020202020202020D1
:1043F000203273742042617200202020202020206F
:10440000202033737420426172002020202020423B
:104410006F7474656E74696D657200202020204E83
:104420006170706E657274696D6572002020202065
:104430005265737461727474696D65720020202016
:10444000202020202020446961676E6F73002020A7
:104450002020202020202020322042617273002062
:104460002020202020202020203320426172730051
:10447000202020202020202020202020202020203C
:1044800000535452614D2020202020202020202045
:1044900000534E5552522020202020202020202042
:1044A000004C4F434B204D4F4445202020202020DE
:1044B000004C494E45204D455353202020202020BC
:1044C00000434154434820444F574E202020202091
:1044D0000046415254534252454D53202020202043
:1044E000004252454D532B203D204A4120202020A0
:1044F000005350454544204252414B452020202046
:104500000056414C5545532046524F4D2020202007
:10451000004252414B452B203D205945532020203D
:10452000004C494E452044524153205554202020F0
:104530000048454E54205354414E4441524420209B
:10454000004D4F544F522043555252454E54202057
:1045500000494E5354494C4C494E47204652412045
:10456000004E415050205062204E45445455522038
:10457000004C415620426254424154544552492114
:104580000056454E4E4C494753542056454E5421F3
:10459000005452594B4B204B4E415050454E202D0C
:1045A00000415353495354494E472054494D452ED9
:1045B00000534F46542053544F502054494D452EDC
:1045C0000043484F4F53452050524F4752414D2EC4
:1045D0000048454E54455220564552444945522EB6
:1045E000004C4F4144494E47205641554C45532EAF
:1045F0000020202020202020202020204B45583A39
:104600000057454947485420414646454354454490
:10461000004841554C494E47205550204D4F444588
:104620000053454E444552204649524D564152454D
:10463000004D494E204D4F544F524641525420494F
:10464000004459424445534C5552202D204D494E6B
:104650000048454B4C45534F4E45204252454D5323
:10466000004C4F4144494E472044454641554C5427
:10467000004156204D4F544F524E53204641525404
:10468000004C494E452050554C4C4544204F555404
:1046900000414E54414C4C204A554B5320202000A1
:1046A0004C494E45204449414D455445522E004EFB
:1046B000594C4F4E4449414D455445522E005341AB
:1046C00056494E472056414C5545532E0053544FA2
:1046D0005020415420484F4F4B5A2E0043415443E1
:1046E00048204D4144452042593A0046414E4753E7
:1046F00054205245472050623A005354414E4E4197
:10470000205645442030203F004259205748454517
:104710004C205350454544004259204D4F544F5270
:104720002053504545440056495341204E41505076
:104730004459424445004C494E45204D4553532071
:104740004D4F4445004C415620426254424154541E
:1047500045524900484F4F4B5A4F4E452042524513
:10476000414B00564544204B4E4150505452594BFA
:104770004B0048554D494449545920414C41524DF4
:10478000004156204D4F544F5220535452614D001A
:10479000535441525441204D4F544F52454E0044C2
:1047A00059424445524544554B534A4F4E00455299
:1047B000524F522056414C5545204E4F00455252C3
:1047C0004F52205645524449204E4F00414E5441CD
:1047D0004C20564544204E415050005350415245C4
:1047E000522056455244494552004F555445522097
:1047F0004449414D45544552004B4559424F415261
:1048000044204552524F5200544742204B4E415093
:10481000504552524F52004E554D424552204F4640
:10482000204A49475300415620484A554C45542098
:1048300046415254004155544F20625445525354FE
:1048400041525400634649524D5741524520202061
:104850003A004245534B595454454C53452021008E
:104860005055534820425554544F4E202D00534527
:1048700052564943452054494D452E0056454C4714
:104880002050524F4752414D2E0046524947414E0B
:1048900047534F4D44522E0063484F5552204D45CB
:1048A000544552203A0063544944524547495354B1
:1048B00045523A0053544F50204154205A45524FCC
:1048C0003F002020202020202020204C4F44440066
:1048D000444554454B534A4F4E5354494400534C5E
:1048E0005552204B4E415050454E450053454E4485
:1048F000204649524D564152450053454E442046AC
:1049000049524D574152450020202053494D554CA6
:104910004552494E470053544550204A494720507C
:10492000524F47004D494E494D554D204445505436
:104930004800464F524D415420454550524F4D007E
:104940002020202020204D4F544F52454E00202043
:104950002053494D554C4154494F4E0020202020B2
:1049600020202053494E4B4552004D494E494D554C
:104970004D20504F57455200504152414D455445EE
:104980005220464F52005447422D494E5420455222
:10499000524F520020202020202020204D4F544FE5
:1049A000520056454B542050625649524B455300D5
:1049B000204452414720425554544F4E53005354C3
:1049C0004F5020492056414E4E4554004649524DC5
:1049D000564152452053454E54004649524D574189
:1049E00052452053454E54004D4F544F5220414E96
:1049F00044204D455800524553504F4E5320444596
:104A00004C415900464F524D415454494E472E2E69
:104A10002E00464F4E542053495A45202020002056
:104A200020202020202053544550200050524F5425
:104A3000454354494F4E202100455220464A455295
:104A40004E4554202100504C454153452057414983
:104A500054210053455256494345205449442E00A1
:104A600053544F502048454B4C45532E004252451D
:104A7000414B20524544554345004D494E53544502
:104A800020445942444500484F4F4B494E47205A15
:104A90004F4E45004E454452452053544F4C5045CF
:104AA0000050554C5345204C454E47544800464F06
:104AB0004E542053544F524C454B0053454E44499D
:104AC0004E47204641494C00464953482050524FDA
:104AD0004752414D0042554E4E2050524F47524191
:104AE0004D004649534B4550524F4752414D0049A6
:104AF0004E4E464F524D41534A4F4E00414E544147
:104B00004C2050554C534552004D4F544F5220535A
:104B10005441525453004341544348204445544562
:104B20004354004155544F20524553544152540070
:104B30004D4F544F52204F47204D45580042454C51
:104B40004954524F4E494327530056414C54205329
:104B50005052624B2E004752554E4E4B52414654D6
:104B60002E0053544F5020494E2053454100564982
:104B7000534E494E47535449440046414E475354BF
:104B80004459424445004E594C4F4E4D454E4744C2
:104B90004500545956455249204B4F444500444521
:104BA000544543542054494D4500615652452053C5
:104BB000544F4C50450054454D5045524154555268
:104BC000450050554C5345205041555345004445F0
:104BD00050544820504155534500424F54544F4D76
:104BE0002050524F470053544550204C454E475497
:104BF000480041424F5645204445505448004445E2
:104C000050544820425245414B0048494C20505294
:104C10004F4752414D00494E464F524D4154494F26
:104C20004E00434F4F5045524154494F4E004D4165
:104C30005354455254494D455200534E55525220FB
:104C40004D4F4455530044524549454D4F4D454EF7
:104C50005400486147204E495662212020004849AF
:104C60004748204C4556454C21005245535441522B
:104C70005420464F52003C20525820444154412079
:104C80003E003C2054582044415441203E00202006
:104C900020204F46462020200020202020494E4E34
:104CA0002020200020202020204F4E2020200020E7
:104CB00020202020555420202000484A454C5045B3
:104CC0005449442E004C494E45204D4553532E0027
:104CD0004F56414E20445942444500484A554C42A3
:104CE0005245444445004A554B534C454E47444574
:104CF0000050554C534C454E47444500544845469A
:104D00005420434F4445004C494748542054494D92
:104D10004500535445502050415553450044594295
:104D200044455041555345004D4F544F52535452F2
:104D3000614D0020202020202020204E4F00424F97
:104D400054544F4D2042415200424F4F544C4F411A
:104D5000444552004F4D445245494E474552005438
:104D6000454D5045524154555200445942444542E4
:104D700052454D5300574845454C204C4150530037
:104D80004252494748544E455353004E41505020DB
:104D90004D4F44555300424F4F535420564F4C549F
:104DA00000535641525344454C41590050524F44D0
:104DB0002030302D31460050524F442032302D33B8
:104DC000460050524F442034302D35460050524F4B
:104DD000442036302D37460050524F442038302D75
:104DE00039460050524F442041302D424600505227
:104DF0004F442043302D44460050524F442045300C
:104E00002D4646002020534C4156202020002020D3
:104E1000534C41564520200020204D4153544552CB
:104E20002000414B544956455254200043415443BD
:104E300048204C45440053414D41524245494400AD
:104E40004D414B5344594244450048494C4C454E12
:104E5000474445004A554B53204D4F4445004C595B
:104E600053535459524B450050554C535041555390
:104E700045004D4158204445505448004E41505043
:104E8000424C494E4B0054454C4C455645524B0004
:104E900046524545574845454C0053454E442046EB
:104EA00045494C0046554B54204C41524D00444915
:104EB00052454354494F4E0054494D4520444F57A5
:104EC0004E0053454E442042494F53004D624C45DD
:104ED000454E4845540050562D4B4F5254455400B2
:104EE0004452495620564F4C54004D4F544F524651
:104EF00041525400555050455220524F5700524590
:104F000053544152542020004D414348494E4520BE
:104F10002100424A35303030204558004E4F525320
:104F20004B2020200053494D504C452020004E4F2F
:104F3000524D414C202000454E474C4953482000DB
:104F4000455241534544202100455854454E44455F
:104F5000440044495354414E4345004A4947204D7B
:104F60004F4445004C414E47554147450053484F3B
:104F70005754494D450048494C5041555345004C04
:104F8000494E4520555445005350454E4E494E47D5
:104F900000484A554C4641525400434F4E545241EA
:104FA0005354004B4F4E5452415354004C494E45BC
:104FB000204F55540063532F4E204B45580040203E
:104FC00020202020205D00444F4E4521202020003D
:104FD000434C454152494E47005F5F5F5F5F5F5FF3
:104FE0005F00454E4B454C2020004E4F524D414CEA
:104FF00020002D2D2D2D2D2D2D00414D5020202018
:105000003A004452414720203A0054454D50202058
:105010003A004E41505020203A00534C5552202027
:105020003A0056454B5420203A0042415454202027
:105030003A004252414B45203A00434154434820F4
:105040003A00535452614D203A004252454D53208C
:105050003A00424F4F5354203A004D4F54284929AB
:105060003A004B4F50204E4D3A004D4F54204E4D7C
:105070003A00434C55204E4D3A004D4F5452504D3E
:105080003A005745494748543A00544944204E4550
:1050900044004D624C455449440041565354414EDE
:1050A000440052502D4341524400564F4C54414706
:1050B00045004D414348494E45004B4F424C494EF7
:1050C00047004E45545645524B004E4554574F529B
:1050D0004B00544944204F50500054494D452055F1
:1050E00050002046414D4E45520020204D4554452C
:1050F0005200464154484F4D530041444452455399
:1051000053005554564944455400202020464545F7
:10511000540020202020464F5400532F4E204D4550
:1051200058005365727669636500545241494E20B8
:105130003A00464C414747413A004C415354534C86
:105140003A005554475255503A004D54494D455236
:105150003A005245535452543A005554534C415618
:105160003A0054494D454F555400444953504C4121
:1051700059004445564943452100554E4B4E4F5723
:105180004E004155544F20200020444F4E452100F1
:10519000204B4C41522100534E5552522E0050523A
:1051A0004F44203A004C59535449440047525550FB
:1051B000504500544F5251554500434C55544348B7
:1051C0000053595354454D00424F54544F4D004DD8
:1051D00041534B494E00504155534552004D454EA9
:1051E0005945520053454E534F5200504155534577
:1051F000530041445245535300454E4445535400D7
:105200004C494E4520004E495662200043415443CC
:105210004800574944544800535052624B00544F81
:1052200054414C004C4556454C004E594C4F4E0095
:1052300047524F5550004D454E5553003A2031329C
:1052400056003A203234560042494F533A005049F2
:105250005020005645523A004350553A004C4F47B3
:105260004700484A554C0042554E4E004155544F58
:10527000004F46462000363732320036363237008D
:105280005245563A004D45583A004A4947003C3C81
:105290003C003138460056290028002B002C003BEA
:1052A00000000001B66BB76BBF6BC06BBB6BBC6B18
:1052B000B46BB56BFE51A3EC3FF0DECFBDF0DDCF9C
:1052C000BEF0190EFE1918E1960E796F430E7A6F33
:1052D000CB0E7B6F3F0E7C6FB9EC41F0BAEC7DF0EA
:1052E000F1ECA4F04BEC79F006EC9BF054EC79F087
:1052F00031ECADF0E4EC42F0120EFE1910E0160EA7
:10530000FE190DE0660EFE190AE0670EFE1907E0B1
:10531000690EFE1904E06A0EFE1901E081D0B9ECB5
:1053200041F0BAEC7DF0F1ECA4F017C0A9F018C080
:10533000AAF019C0ABF01AC0ACF0ADEC42F0420ECE
:105340007C6FA9C075F0AAC076F0ABC077F0ACC096
:1053500078F006EC9BF047EC94F028EE2CF0C4ECCF
:105360008BF0F1ECA4F0CEEC8BF021EC9DF035C08D
:10537000A9F036C0AAF037C0ABF038C0ACF0A9C075
:1053800079F0AAC07AF0ABC07BF0ACC07CF027EE1D
:10539000BAF0C4EC8BF0F1ECA4F04BEC79F006EC35
:1053A0009BF075C09EF076C09FF077C0A0F078C0EB
:1053B000A1F0DB0E3FEC42F09EC075F09FC076F08E
:1053C000A0C077F0A1C078F006EC9BF075C0A2F009
:1053D00076C0A3F077C0A4F078C0A5F0A2C075F0A5
:1053E000A3C076F0A4C077F0A5C078F0F5EC41F04A
:1053F00006EC9BF075C0A9F076C0AAF077C0ABF0C0
:1054000078C0ACF0A9C08EF0AAC08FF0ABC090F00D
:10541000ACC091F031ECADF0E4EC42F0020EAE6FB6
:10542000150EFE1906E0160EFE1903E0670EFE19B2
:1054300002E1020EAE6FFE510EE1BEAF0CD0BDC058
:1054400017F0BEC018F01A68196815ECB8F017C04C
:10545000BDF018C0BEF0AF0E0001FE190DE1F2C89C
:105460000FF0F3C810F0126A050E116E01ECB1F0E6
:105470000FC0BDF010C0BEF0010E4D6EBDC00FF0EC
:10548000BEC010F06CECA0F001ECB1F00FC0B0F0B9
:1054900010C0B1F047EC41F015ECB8F00001BD517F
:1054A00017240F6EBE511820106EBEEC41F001ECB7
:1054B000B1F00FC0B6F010C0B7F047EC41F015ECFA
:1054C000B8F034EC41F015ECB8F050EC41F035ECAC
:1054D00042F09DEC42F001ECB1F0DAEC42F047EC26
:1054E00041F015ECB8F034EC41F015ECB8F050ECAC
:1054F00041F056EC41F015ECB8F050EC41F035ECD1
:1055000042F0E1EC41F001ECB1F070EC42F047EC1C
:1055100041F015ECB8F034EC41F015ECB8F050EC7B
:1055200041F056EC41F015ECB8F050EC41F075EC60
:1055300042F0C8EC42F015ECB8F050EC41F0BD512F
:105540009625B46FBE519721B56F4AEF3FF0BD511C
:105550000101E51904E130EC42F001E1C1D00201A2
:105560008351841101E0BCD06B0E0001FE6505D0B3
:10557000700EFE6102D033EC43F0050E0001C16FE6
:10558000100EC36F790EFE1906E07D0EFE1903E0C2
:105590008A0EFE1901E1C36BAD0EFE1902E10A0E7F
:1055A000C36F44EC40F000EC4FF0BD510900F5181A
:1055B0001DE1BE510900F51819E110EC40F000ECB6
:1055C0004FF00800F51C12E0C3C018F0F3EC3FF0F8
:1055D00010EC40F000EC4FF0C1EC3FF0DBEC3FF0A2
:1055E000ABEC3FF0C15166ECA4F060D04EEC4FF054
:1055F00000EC4FF0BD510900F5181AE1BE51090049
:10560000F51816E113EC40F0B4EC5DF0F51C10E079
:10561000C3C018F0F3EC3FF013EC40F0B4EC5DF0D5
:10562000C6EC3FF0ABEC3FF0C15166ECA4F03ED0CD
:10563000B651B71107E1E0EC40F066ECA4F0CCEC19
:1056400042F005D0FEEC41F06EECB8F0F8D7BF5157
:10565000C0110AE1B651B71107E1E0EC40F066EC89
:10566000A4F0CCEC42F005D00EEC42F06EECB8F0B9
:10567000F8D7BB51BC110DE1BF51C0110AE1B651C1
:10568000B71107E1E0EC40F066ECA4F0CCEC42F09E
:1056900005D006EC42F06EECB8F0F8D716EC42F00C
:1056A0006EECB8F02EEC43F08FECACF00F0E000176
:1056B000FE1914E14D6A0F0E186ECC0E966F010E96
:1056C0008BEC40F0D8909837993721EE08F06AECCF
:1056D00040F009EC40F0070E6DECAAF0DFEC42F070
:1056E000950E0001FE1901E08FD045AE8DD04D6AB8
:1056F000186A5A0E196E510E1A6E040E6DECAAF04D
:10570000070E386E4EC039F054EC6CF058ECA8F02F
:105710000A0E186E320E196E510E1A6E040E6DECD2
:10572000AAF0110E386EBAC139F058EC6CF058EC92
:10573000A8F0160E186E2A0E196E510E1A6E040E6F
:105740006DECAAF01D0E386E89C239F08AC23AF0AB
:105750004EEC6CF058ECA8F0186A420E196E510E1F
:105760001A6E050E6DECAAF0070E386EFDC039F00A
:105770003A6A5AEC84F058ECA8F00A0EB3EC42F006
:10578000050E6DECAAF0110E386ECBC239F0CCC20A
:105790003AF0D9EC41F058ECA8F0160E186E4A0E0B
:1057A000196E510E1A6E050E6DECAAF01D0E386EB4
:1057B000C7C139F03A6AD9EC41F058ECA8F00A0EAA
:1057C000186E520E196E510E1A6E060E6DECAAF07E
:1057D000110E386EC9C239F0CAC23AF051EC6CF001
:1057E00058ECA8F0160E186E3A0E196E510E1A6E7D
:1057F000060E6DECAAF01D0E386EC8C139F03A6A7B
:1058000051EC6CF058ECA8F06E0E0001FE1904E0AB
:105810006F0EFE19D8A412004D6A6E0EFE191EE11D
:10582000EBEC41F050EC94F006EC43F011E21EEC8E
:1058300042F007E129EC43F01A6E050E66ECA4F085
:105840000DD01AEC43F01A6E050E66ECA4F006D0EB
:10585000186AC0ECB0F0050E66ECA4F06F0E000103
:10586000FE19D8A41200F0EC41F050EC94F006ECD4
:1058700043F009E21EEC42F003E129EC43F007D0CB
:105880001AEC43F004D0186A750E196E440E1A6EA5
:10589000050E66EFA4F0BD510101E51904E130ECFD
:1058A00042F0D8B41200020183518411D8A412002E
:1058B0001C0E0001FE1909E01D0EFE1906E03C0E4B
:1058C000FE1903E0440EFE1902E133EC43F0020E30
:1058D0000001AE190C0ED8A40E0EC36F050EC16FD9
:1058E000FE51A3EC3FF044EC40F000EC4FF0DE50F2
:1058F0000900F5181EE1DE500900F5181AE110EC58
:1059000040F000EC4FF00800F51C13E0C3C018F0A5
:10591000F3EC3FF010EC40F000EC4FF0C1EC3FF046
:10592000DBEC3FF0ABEC3FF0C15166ECA4F0DFEFF5
:1059300042F0FE51A3EC3FF04EEC4FF000EC4FF084
:10594000DE500900F5181BE1DE500900F51817E1DB
:1059500013EC40F0B4EC5DF0F51C11E0C3C018F09E
:10596000F3EC3FF013EC40F0B4EC5DF0C6EC3FF02C
:10597000ABEC3FF0C15166ECA4F0DFEF42F0020E59
:10598000AE1915E1B051B11107E1E0EC40F066EC61
:10599000A4F00001C32B0AD0C3C02CF0B0C02DF07E
:1059A000B1C02EF0C1516EECB8F0F3D7C32BB65195
:1059B000B7110AE1B051B11107E1E0EC40F066EC3B
:1059C000A4F00001C32B05D0FEEC41F06EECB8F062
:1059D000F8D7C32BBF51C0110DE1B651B7110AE181
:1059E000020EAE1907E0E0EC40F066ECA4F0000116
:1059F000C32B05D00EEC42F06EECB8F0F8D7C32BF9
:105A0000020EAE1906E123EC42F066ECA4F0CCECF9
:105A100042F006EC42F06EECB8F00001C32BC32B51
:105A2000020EAE1906E023EC42F066ECA4F0CCECDA
:105A300042F016EC42F06EECB8F02EEC43F08FEC36
:105A4000ACF0DFEF42F0BD510101E51904E130ECAB
:105A500042F0D8B41200120E0001C36F050EC16FE0
:105A60002DD0C3C018F0F3EC3FF02FEC40F098ECD1
:105A70003FF0C15166ECA4F0DFEF42F0C3C018F074
:105A8000F3EC3FF0040E66EC40F02FEC40F098ECA5
:105A90003FF0C15166ECA4F0DFEF42F0C3C018F054
:105AA000F3EC3FF0080E66EC40F02FEC40F098EC81
:105AB0003FF0C15166ECA4F0DFEF42F0FE51A3ECE1
:105AC0003FF019EC40F09751BCE19651CAE0010A51
:105AD000D5E0030AE3E0DFEF42F0E70EFE25D96EE2
:105AE000DA6A000EDA22DF50C26F6EECB0F0DF50DF
:105AF000C36F75ECB0F0DF50BA6F459C4D6A010181
:105B0000B45102E0BDEF35F043AABBEF35F0000120
:105B1000C2A107D0010E81EC41F0020E6DECAAF09B
:105B200006D0010E93EC41F0020E6DECAAF00001DC
:105B3000C2A307D00C0E81EC41F0020E6DECAAF06E
:105B400006D00C0E93EC41F0020E6DECAAF00001B1
:105B5000C2A507D0170E81EC41F0020E6DECAAF041
:105B600006D0170E93EC41F0020E6DECAAF0000186
:105B7000C2A707D0010E81EC41F0050E6DECAAF032
:105B800006D0010E93EC41F0050E6DECAAF0000179
:105B9000C2A907D00C0E81EC41F0050E6DECAAF005
:105BA00006D00C0E93EC41F0050E6DECAAF000014E
:105BB000C2AB07D0170E81EC41F0050E6DECAAF0D8
:105BC00006D0170E93EC41F0050E6DECAAF0020E14
:105BD000BEECB9F00001C2A105D047EC43F0AFEC38
:105BE000B4F004D0000E186AAFECB4F0030EBEECB3
:105BF000B9F00001C2A105D050EC43F0AFECB4F015
:105C000004D0000E186AAFECB4F0040EBEECB9F08C
:105C10000001C2A105D068EC43F0AFECB4F004D0B1
:105C2000000E186AAFECB4F0020EBEECB9F0000141
:105C3000C2A305D05FEC43F0AFECB4F004D0186A17
:105C40000B0EAFECB4F0030EBEECB9F00001C2A332
:105C500005D065EC43F0AFECB4F004D0186A0B0E3D
:105C6000AFECB4F0040EBEECB9F00001C2A305D055
:105C700074EC43F0AFECB4F004D0186A0B0EAFEC48
:105C8000B4F0020EBEECB9F00001C2A505D053EC91
:105C900043F0AFECB4F004D0186A160EAFECB4F0D9
:105CA000030EBEECB9F00001C2A505D05CEC43F0D8
:105CB000AFECB4F004D0186A160EAFECB4F0040EDA
:105CC000BEECB9F00001C2A505D06BEC43F0AFEC1F
:105CD000B4F004D0186A160EAFECB4F0050EBEECAA
:105CE000B9F00001C2A705D047EC43F0AFECB4F027
:105CF00004D0000E186AAFECB4F0060EBEECB9F09A
:105D00000001C2A705D050EC43F0AFECB4F004D0D2
:105D1000000E186AAFECB4F0070EBEECB9F000014B
:105D2000C2A705D068EC43F0AFECB4F004D0000E8D
:105D3000186AAFECB4F0050EBEECB9F00001C2A9D0
:105D400005D05FEC43F0AFECB4F004D0186A0B0E52
:105D5000AFECB4F0060EBEECB9F00001C2A905D05C
:105D600065EC43F0AFECB4F004D0186A0B0EAFEC66
:105D7000B4F0070EBEECB9F00001C2A905D074EC76
:105D800043F0AFECB4F004D0186A0B0EAFECB4F0F3
:105D9000050EBEECB9F00001C2AB05D053EC43F0E8
:105DA000AFECB4F004D0186A160EAFECB4F0060EE7
:105DB000BEECB9F00001C2AB05D05CEC43F0AFEC37
:105DC000B4F004D0186A160EAFECB4F0070EBEECB7
:105DD000B9F00001C2AB05D06BEC43F0AFECB4F00E
:105DE00004D0186A160EAFECB4F0020EBEECB9F097
:105DF0000001C2A105D04AEC43F0AFECB4F004D0EE
:105E0000186A090EAFECB4F0030EBEECB9F0000155
:105E1000C2A105D041EC43F0AFECB4F004D0186A55
:105E2000090EAFECB4F0040EBEECB9F00001C2A153
:105E300005D0090E186EAFECB4F004D0186A090E44
:105E4000AFECB4F0020EBEECB9F00001C2A305D075
:105E50006EEC43F0AFECB4F004D0186A140EAFEC63
:105E6000B4F0030EBEECB9F00001C2A305D059ECAA
:105E700043F0AFECB4F004D0186A140EAFECB4F0F9
:105E8000040EBEECB9F00001C2A305D04DEC43F006
:105E9000AFECB4F004D0186A140EAFECB4F0020EFC
:105EA000BEECB9F00001C2A505D071EC43F0AFEC37
:105EB000B4F004D0186A1F0EAFECB4F0030EBEECC1
:105EC000B9F00001C2A505D062EC43F0AFECB4F02C
:105ED00004D0186A1F0EAFECB4F0040EBEECB9F09B
:105EE0000001C2A505D056EC43F0AFECB4F004D0ED
:105EF000186A1F0EAFECB4F0050EBEECB9F000014D
:105F0000C2A705D04AEC43F0AFECB4F004D0186A55
